{
  "abi": [
    {
      "inputs": [],
      "stateMutability": "nonpayable",
      "type": "constructor"
    },
    {
      "inputs": [],
      "name": "IncorrectRecipeDetails",
      "type": "error"
    },
    {
      "inputs": [],
      "name": "RecipeNotActive",
      "type": "error"
    },
    {
      "anonymous": false,
      "inputs": [
        {
          "indexed": true,
          "internalType": "uint256",
          "name": "recipeId",
          "type": "uint256"
        }
      ],
      "name": "NewRecipe",
      "type": "event"
    },
    {
      "anonymous": false,
      "inputs": [
        {
          "indexed": true,
          "internalType": "address",
          "name": "implementation",
          "type": "address"
        }
      ],
      "name": "Upgraded",
      "type": "event"
    },
    {
      "inputs": [
        {
          "components": [
            {
              "internalType": "address[]",
              "name": "battlePasses",
              "type": "address[]"
            },
            {
              "internalType": "uint256[]",
              "name": "ids",
              "type": "uint256[]"
            },
            {
              "internalType": "uint256[]",
              "name": "qtys",
              "type": "uint256[]"
            }
          ],
          "internalType": "struct Ingredients",
          "name": "input",
          "type": "tuple"
        },
        {
          "components": [
            {
              "internalType": "address[]",
              "name": "battlePasses",
              "type": "address[]"
            },
            {
              "internalType": "uint256[]",
              "name": "ids",
              "type": "uint256[]"
            },
            {
              "internalType": "uint256[]",
              "name": "qtys",
              "type": "uint256[]"
            }
          ],
          "internalType": "struct Ingredients",
          "name": "output",
          "type": "tuple"
        }
      ],
      "name": "addRecipe",
      "outputs": [
        {
          "internalType": "uint256",
          "name": "",
          "type": "uint256"
        }
      ],
      "stateMutability": "nonpayable",
      "type": "function"
    },
    {
      "inputs": [
        {
          "internalType": "uint256",
          "name": "_recipeId",
          "type": "uint256"
        }
      ],
      "name": "craft",
      "outputs": [],
      "stateMutability": "nonpayable",
      "type": "function"
    },
    {
      "inputs": [
        {
          "internalType": "uint256",
          "name": "_recipeId",
          "type": "uint256"
        }
      ],
      "name": "getInputIngredients",
      "outputs": [
        {
          "components": [
            {
              "internalType": "address[]",
              "name": "battlePasses",
              "type": "address[]"
            },
            {
              "internalType": "uint256[]",
              "name": "ids",
              "type": "uint256[]"
            },
            {
              "internalType": "uint256[]",
              "name": "qtys",
              "type": "uint256[]"
            }
          ],
          "internalType": "struct Ingredients",
          "name": "",
          "type": "tuple"
        }
      ],
      "stateMutability": "view",
      "type": "function"
    },
    {
      "inputs": [
        {
          "internalType": "uint256",
          "name": "_recipeId",
          "type": "uint256"
        }
      ],
      "name": "getOutputIngredients",
      "outputs": [
        {
          "components": [
            {
              "internalType": "address[]",
              "name": "battlePasses",
              "type": "address[]"
            },
            {
              "internalType": "uint256[]",
              "name": "ids",
              "type": "uint256[]"
            },
            {
              "internalType": "uint256[]",
              "name": "qtys",
              "type": "uint256[]"
            }
          ],
          "internalType": "struct Ingredients",
          "name": "",
          "type": "tuple"
        }
      ],
      "stateMutability": "view",
      "type": "function"
    },
    {
      "inputs": [],
      "name": "initialize",
      "outputs": [],
      "stateMutability": "nonpayable",
      "type": "function"
    },
    {
      "inputs": [
        {
          "internalType": "uint256",
          "name": "",
          "type": "uint256"
        }
      ],
      "name": "isActive",
      "outputs": [
        {
          "internalType": "bool",
          "name": "",
          "type": "bool"
        }
      ],
      "stateMutability": "view",
      "type": "function"
    },
    {
      "inputs": [],
      "name": "owner",
      "outputs": [
        {
          "internalType": "address",
          "name": "",
          "type": "address"
        }
      ],
      "stateMutability": "view",
      "type": "function"
    },
    {
      "inputs": [],
      "name": "proxiableUUID",
      "outputs": [
        {
          "internalType": "bytes32",
          "name": "",
          "type": "bytes32"
        }
      ],
      "stateMutability": "view",
      "type": "function"
    },
    {
      "inputs": [],
      "name": "recipeId",
      "outputs": [
        {
          "internalType": "uint256",
          "name": "",
          "type": "uint256"
        }
      ],
      "stateMutability": "view",
      "type": "function"
    },
    {
      "inputs": [
        {
          "internalType": "address",
          "name": "newOwner",
          "type": "address"
        }
      ],
      "name": "setOwner",
      "outputs": [],
      "stateMutability": "nonpayable",
      "type": "function"
    },
    {
      "inputs": [
        {
          "internalType": "uint256",
          "name": "_recipeId",
          "type": "uint256"
        },
        {
          "internalType": "bool",
          "name": "toggle",
          "type": "bool"
        }
      ],
      "name": "toggleRecipe",
      "outputs": [],
      "stateMutability": "nonpayable",
      "type": "function"
    },
    {
      "inputs": [
        {
          "internalType": "address",
          "name": "newImplementation",
          "type": "address"
        }
      ],
      "name": "upgradeTo",
      "outputs": [],
      "stateMutability": "nonpayable",
      "type": "function"
    }
  ],
  "bytecode": {
    "object": "0x60a06040523060805234801561001457600080fd5b5060805161194761003e600039600081816103760152818161044d015261054e01526119476000f3fe608060405234801561001057600080fd5b50600436106100d45760003560e01c806382afd23b11610081578063ab82a7cc1161005b578063ab82a7cc146101d8578063f0e59542146101eb578063f3917bd2146101fe57600080fd5b806382afd23b146101405780638bf47acb146101735780638da5cb5b1461019357600080fd5b806352d1902d116100b257806352d1902d1461011d5780636bbee76e146101255780638129fc1c1461013857600080fd5b806313af4035146100d95780633659cfe6146100ee57806344feff3314610101575b600080fd5b6100ec6100e7366004611468565b610211565b005b6100ec6100fc366004611468565b6102de565b61010a60015481565b6040519081526020015b60405180910390f35b61010a610534565b6100ec61013336600461148c565b610620565b6100ec6106df565b61016361014e3660046114c1565b60046020526000908152604090205460ff1681565b6040519015158152602001610114565b6101866101813660046114c1565b610774565b6040516101149190611515565b6000546101b39073ffffffffffffffffffffffffffffffffffffffff1681565b60405173ffffffffffffffffffffffffffffffffffffffff9091168152602001610114565b61010a6101e63660046115ed565b6108cf565b6101866101f93660046114c1565b610ac9565b6100ec61020c3660046114c1565b610c1e565b60005473ffffffffffffffffffffffffffffffffffffffff163314610297576040517f08c379a000000000000000000000000000000000000000000000000000000000815260206004820152600c60248201527f554e415554484f52495a4544000000000000000000000000000000000000000060448201526064015b60405180910390fd5b600080547fffffffffffffffffffffffff00000000000000000000000000000000000000001673ffffffffffffffffffffffffffffffffffffffff92909216919091179055565b60005473ffffffffffffffffffffffffffffffffffffffff16331461035f576040517f08c379a000000000000000000000000000000000000000000000000000000000815260206004820152600c60248201527f554e415554484f52495a45440000000000000000000000000000000000000000604482015260640161028e565b73ffffffffffffffffffffffffffffffffffffffff7f0000000000000000000000000000000000000000000000000000000000000000163003610424576040517f08c379a000000000000000000000000000000000000000000000000000000000815260206004820152602c60248201527f46756e6374696f6e206d7573742062652063616c6c6564207468726f7567682060448201527f64656c656761746563616c6c0000000000000000000000000000000000000000606482015260840161028e565b7f360894a13ba1a3210667c828492db98dca3e2076cc3735a920a3ca505d382bbc5460008190507f000000000000000000000000000000000000000000000000000000000000000073ffffffffffffffffffffffffffffffffffffffff168173ffffffffffffffffffffffffffffffffffffffff1614610526576040517f08c379a000000000000000000000000000000000000000000000000000000000815260206004820152602c60248201527f46756e6374696f6e206d7573742062652063616c6c6564207468726f7567682060448201527f6163746976652070726f78790000000000000000000000000000000000000000606482015260840161028e565b61052f83611123565b505050565b60003073ffffffffffffffffffffffffffffffffffffffff7f000000000000000000000000000000000000000000000000000000000000000016146105fb576040517f08c379a000000000000000000000000000000000000000000000000000000000815260206004820152603860248201527f555550535570677261646561626c653a206d757374206e6f742062652063616c60448201527f6c6564207468726f7567682064656c656761746563616c6c0000000000000000606482015260840161028e565b507f360894a13ba1a3210667c828492db98dca3e2076cc3735a920a3ca505d382bbc90565b60005473ffffffffffffffffffffffffffffffffffffffff1633146106a1576040517f08c379a000000000000000000000000000000000000000000000000000000000815260206004820152600c60248201527f554e415554484f52495a45440000000000000000000000000000000000000000604482015260640161028e565b60009182526004602052604090912080547fffffffffffffffffffffffffffffffffffffffffffffffffffffffffffffff0016911515919091179055565b303b15610748576040517f08c379a000000000000000000000000000000000000000000000000000000000815260206004820152600860248201527f68656865206e6f2e000000000000000000000000000000000000000000000000604482015260640161028e565b600080547fffffffffffffffffffffffff00000000000000000000000000000000000000001633179055565b61079860405180606001604052806060815260200160608152602001606081525090565b6000828152600260209081526040918290208251815460809381028201840190945260608101848152909391928492849184018282801561080f57602002820191906000526020600020905b815473ffffffffffffffffffffffffffffffffffffffff1681526001909101906020018083116107e4575b505050505081526020016001820180548060200260200160405190810160405280929190818152602001828054801561086757602002820191906000526020600020905b815481526020019060010190808311610853575b50505050508152602001600282018054806020026020016040519081016040528092919081815260200182805480156108bf57602002820191906000526020600020905b8154815260200190600101908083116108ab575b5050505050815250509050919050565b6000805473ffffffffffffffffffffffffffffffffffffffff163314610951576040517f08c379a000000000000000000000000000000000000000000000000000000000815260206004820152600c60248201527f554e415554484f52495a45440000000000000000000000000000000000000000604482015260640161028e565b61095e6020840184611651565b905061096a8480611651565b905014158061099557506109816040840184611651565b90506109906020850185611651565b905014155b806109bc57506109a86040830183611651565b90506109b76020840184611651565b905014155b806109e057506109cf6040830183611651565b90506109db8380611651565b905014155b15610a17576040517f522a9e4b00000000000000000000000000000000000000000000000000000000815260040160405180910390fd5b6001805481019081905560009081526002602052604090208390610a3b8282611782565b505060015460009081526003602052604090208290610a5a8282611782565b50506001805460009081526004602052604080822080547fffffffffffffffffffffffffffffffffffffffffffffffffffffffffffffff001684179055915491517fe4ca0d919de28627a236ef4313cb07a0613e9df40d9382a02a91b661375601af9190a25060015492915050565b610aed60405180606001604052806060815260200160608152602001606081525090565b6000828152600360209081526040918290208251815460809381028201840190945260608101848152909391928492849184018282801561080f5760200282019190600052602060002090815473ffffffffffffffffffffffffffffffffffffffff1681526001909101906020018083116107e457505050505081526020016001820180548060200260200160405190810160405280929190818152602001828054801561086757602002820191906000526020600020908154815260200190600101908083116108535750505050508152602001600282018054806020026020016040519081016040528092919081815260200182805480156108bf57602002820191906000526020600020908154815260200190600101908083116108ab575050505050815250509050919050565b60008181526004602052604090205460ff16610c66576040517f3406026c00000000000000000000000000000000000000000000000000000000815260040160405180910390fd5b6000610c706113f3565b600083815260026020908152604080832081518154608094810282018501909352606081018381529596509394909284928491840182828015610ce957602002820191906000526020600020905b815473ffffffffffffffffffffffffffffffffffffffff168152600190910190602001808311610cbe575b5050505050815260200160018201805480602002602001604051908101604052809291908181526020018280548015610d4157602002820191906000526020600020905b815481526020019060010190808311610d2d575b5050505050815260200160028201805480602002602001604051908101604052809291908181526020018280548015610d9957602002820191906000526020600020905b815481526020019060010190808311610d85575b50505091909252505050600084815260036020908152604080832081518154608094810282018501909352606081018381529596509394909284928491840182828015610e1c57602002820191906000526020600020905b815473ffffffffffffffffffffffffffffffffffffffff168152600190910190602001808311610df1575b5050505050815260200160018201805480602002602001604051908101604052809291908181526020018280548015610e7457602002820191906000526020600020905b815481526020019060010190808311610e60575b5050505050815260200160028201805480602002602001604051908101604052809291908181526020018280548015610ecc57602002820191906000526020600020905b815481526020019060010190808311610eb8575b505050505081525050905060005b825151811015610ff9578251805182908110610ef857610ef861186a565b602002602001015173ffffffffffffffffffffffffffffffffffffffff1663f5298aca8585602001518481518110610f3257610f3261186a565b602002602001015186604001518581518110610f5057610f5061186a565b60209081029190910101516040517fffffffff0000000000000000000000000000000000000000000000000000000060e086901b16815273ffffffffffffffffffffffffffffffffffffffff909316600484015260248301919091526044820152606401600060405180830381600087803b158015610fce57600080fd5b505af1158015610fe2573d6000803e3d6000fd5b505050508080610ff190611899565b915050610eda565b5060005b81515181101561111c57815180518290811061101b5761101b61186a565b602002602001015173ffffffffffffffffffffffffffffffffffffffff1663156e29f685846020015184815181106110555761105561186a565b6020026020010151856040015185815181106110735761107361186a565b60209081029190910101516040517fffffffff0000000000000000000000000000000000000000000000000000000060e086901b16815273ffffffffffffffffffffffffffffffffffffffff909316600484015260248301919091526044820152606401600060405180830381600087803b1580156110f157600080fd5b505af1158015611105573d6000803e3d6000fd5b50505050808061111490611899565b915050610ffd565b5050505050565b60008173ffffffffffffffffffffffffffffffffffffffff163b116111ca576040517f08c379a000000000000000000000000000000000000000000000000000000000815260206004820152602d60248201527f455243313936373a206e657720696d706c656d656e746174696f6e206973206e60448201527f6f74206120636f6e747261637400000000000000000000000000000000000000606482015260840161028e565b8073ffffffffffffffffffffffffffffffffffffffff166352d1902d6040518163ffffffff1660e01b8152600401602060405180830381865afa92505050801561124f575060408051601f3d9081017fffffffffffffffffffffffffffffffffffffffffffffffffffffffffffffffe016820190925261124c918101906118f8565b60015b6112db576040517f08c379a000000000000000000000000000000000000000000000000000000000815260206004820152602e60248201527f45524331393637557067726164653a206e657720696d706c656d656e7461746960448201527f6f6e206973206e6f742055555053000000000000000000000000000000000000606482015260840161028e565b7f360894a13ba1a3210667c828492db98dca3e2076cc3735a920a3ca505d382bbc811461138a576040517f08c379a000000000000000000000000000000000000000000000000000000000815260206004820152602960248201527f45524331393637557067726164653a20756e737570706f727465642070726f7860448201527f6961626c65555549440000000000000000000000000000000000000000000000606482015260840161028e565b507f360894a13ba1a3210667c828492db98dca3e2076cc3735a920a3ca505d382bbc81905560405173ffffffffffffffffffffffffffffffffffffffff8216907fbc7cd75a20ee27fd9adebab32041f755214dbc6bffa90cc0225b39da2e5c2d3b90600090a250565b6000805473ffffffffffffffffffffffffffffffffffffffff16330361143e57507fffffffffffffffffffffffffffffffffffffffffffffffffffffffffffffffec36013560601c90565b503390565b73ffffffffffffffffffffffffffffffffffffffff8116811461146557600080fd5b50565b60006020828403121561147a57600080fd5b813561148581611443565b9392505050565b6000806040838503121561149f57600080fd5b82359150602083013580151581146114b657600080fd5b809150509250929050565b6000602082840312156114d357600080fd5b5035919050565b600081518084526020808501945080840160005b8381101561150a578151875295820195908201906001016114ee565b509495945050505050565b6020808252825160608383015280516080840181905260009291820190839060a08601905b8083101561157057835173ffffffffffffffffffffffffffffffffffffffff16825292840192600192909201919084019061153a565b508387015193507fffffffffffffffffffffffffffffffffffffffffffffffffffffffffffffffe09250828682030160408701526115ae81856114da565b935050506040850151818584030160608601526115cb83826114da565b9695505050505050565b6000606082840312156115e757600080fd5b50919050565b6000806040838503121561160057600080fd5b823567ffffffffffffffff8082111561161857600080fd5b611624868387016115d5565b9350602085013591508082111561163a57600080fd5b50611647858286016115d5565b9150509250929050565b60008083357fffffffffffffffffffffffffffffffffffffffffffffffffffffffffffffffe184360301811261168657600080fd5b83018035915067ffffffffffffffff8211156116a157600080fd5b6020019150600581901b36038213156116b957600080fd5b9250929050565b7f4e487b7100000000000000000000000000000000000000000000000000000000600052604160045260246000fd5b8183101561052f576000818152602081208481019084015b8082101561171d57828255600182019150611707565b505050505050565b6801000000000000000083111561173e5761173e6116c0565b805483825561174e8482846116ef565b50818160005260208060002060005b868110156117795783358255928201926001918201910161175d565b50505050505050565b61178c8283611651565b680100000000000000008111156117a5576117a56116c0565b82548184556117b58282866116ef565b508260005260208060002060005b838110156118265784356117d681611443565b82547fffffffffffffffffffffffff00000000000000000000000000000000000000001673ffffffffffffffffffffffffffffffffffffffff9190911617825593820193600191820191016117c3565b505061183481860186611651565b9350915050611847828260018601611725565b50506118566040830183611651565b611864818360028601611725565b50505050565b7f4e487b7100000000000000000000000000000000000000000000000000000000600052603260045260246000fd5b60007fffffffffffffffffffffffffffffffffffffffffffffffffffffffffffffffff82036118f1577f4e487b7100000000000000000000000000000000000000000000000000000000600052601160045260246000fd5b5060010190565b60006020828403121561190a57600080fd5b505191905056fea264697066735822122078123c426e0ca87eaf73f694a9da99891f053b27a9fe1ab543cdf0aeeae98ed364736f6c634300080f0033",
    "linkReferences": {}
  },
  "methodIdentifiers": {
    "addRecipe((address[],uint256[],uint256[]),(address[],uint256[],uint256[]))": "ab82a7cc",
    "craft(uint256)": "f3917bd2",
    "getInputIngredients(uint256)": "8bf47acb",
    "getOutputIngredients(uint256)": "f0e59542",
    "initialize()": "8129fc1c",
    "isActive(uint256)": "82afd23b",
    "owner()": "8da5cb5b",
    "proxiableUUID()": "52d1902d",
    "recipeId()": "44feff33",
    "setOwner(address)": "13af4035",
    "toggleRecipe(uint256,bool)": "6bbee76e",
    "upgradeTo(address)": "3659cfe6"
  },
  "userdoc": {
    "version": 1,
    "kind": "user",
    "methods": {
      "addRecipe((address[],uint256[],uint256[]),(address[],uint256[],uint256[]))": {
        "notice": "creates a new recipe"
      },
      "craft(uint256)": {
        "notice": "crafts new items by recipeId"
      },
      "getInputIngredients(uint256)": {
        "notice": "gets input ingredients for a recipe id"
      },
      "getOutputIngredients(uint256)": {
        "notice": "gets output ingredients for a recipe id"
      },
      "toggleRecipe(uint256,bool)": {
        "notice": "toggles a recipe on or off"
      }
    },
    "notice": "Recipe is just a list of input and output tokens User who has all the required input tokens can 'craft' new items. Ingredients get burn and new items are minted"
  },
  "devdoc": {
    "version": 1,
    "kind": "dev",
    "author": "rayquaza7",
    "details": "implements a modified/minimal version of https://github.com/OpenZeppelin/openzeppelin-contracts/blob/v4.7.2/contracts/proxy/utils/UUPSUpgradeable.sol Removed inheritance in order to simplify storage layout",
    "methods": {
      "addRecipe((address[],uint256[],uint256[]),(address[],uint256[],uint256[]))": {
        "details": "assumes that the ids you are adding are valid based on the spec in BattlePass.sol reverts when: ids.length != qtys.length != battlePasses.length for both input and output tokens",
        "params": {
          "input": "ingredients",
          "output": "ingredients"
        },
        "returns": {
          "_0": "recipeId"
        }
      },
      "craft(uint256)": {
        "details": "reverts when: user does not own the input items recipe is not active",
        "params": {
          "_recipeId": "recipeId"
        }
      },
      "proxiableUUID()": {
        "details": "Implementation of the ERC1822 {proxiableUUID} function. This returns the storage slot used by the implementation. It is used to validate that the this implementation remains valid after an upgrade. IMPORTANT: A proxy pointing at a proxiable contract should not be considered proxiable itself, because this risks bricking a proxy that upgrades to it, by delegating to itself until out of gas. Thus it is critical that this function revert if invoked through a proxy. This is guaranteed by the `notDelegated` modifier."
      }
    },
    "events": {
      "NewRecipe(uint256)": {
        "details": "emitted when new recipe is created"
      }
    },
    "errors": {
      "IncorrectRecipeDetails()": [
        {
          "details": "used when creating a new recipe with incorrect ingredients"
        }
      ],
      "RecipeNotActive()": [
        {
          "details": "used when crafting with an inactive recipe"
        }
      ]
    },
    "title": "Craft recipes, make new yummy items"
  },
  "id": 18
}