{
  "abi": [
    {
      "inputs": [
        {
          "internalType": "uint256",
          "name": "creatorId",
          "type": "uint256"
        },
        {
          "internalType": "address",
          "name": "crafting",
          "type": "address"
        }
      ],
      "stateMutability": "nonpayable",
      "type": "constructor"
    },
    {
      "inputs": [],
      "name": "IncorrectLootboxOptions",
      "type": "error"
    },
    {
      "inputs": [],
      "name": "IncorrectSeasonDetails",
      "type": "error"
    },
    {
      "inputs": [
        {
          "internalType": "uint256",
          "name": "id",
          "type": "uint256"
        }
      ],
      "name": "InvalidId",
      "type": "error"
    },
    {
      "inputs": [
        {
          "internalType": "uint256",
          "name": "lootboxId",
          "type": "uint256"
        }
      ],
      "name": "LOLHowDidYouGetHere",
      "type": "error"
    },
    {
      "inputs": [],
      "name": "NeedPremiumPassToClaimPremiumReward",
      "type": "error"
    },
    {
      "inputs": [],
      "name": "NoAccess",
      "type": "error"
    },
    {
      "inputs": [],
      "name": "NotAtLevelNeededToClaimReward",
      "type": "error"
    },
    {
      "inputs": [],
      "name": "RewardAlreadyClaimed",
      "type": "error"
    },
    {
      "anonymous": false,
      "inputs": [
        {
          "indexed": true,
          "internalType": "address",
          "name": "owner",
          "type": "address"
        },
        {
          "indexed": true,
          "internalType": "address",
          "name": "operator",
          "type": "address"
        },
        {
          "indexed": false,
          "internalType": "bool",
          "name": "approved",
          "type": "bool"
        }
      ],
      "name": "ApprovalForAll",
      "type": "event"
    },
    {
      "anonymous": false,
      "inputs": [
        {
          "indexed": true,
          "internalType": "address",
          "name": "delegator",
          "type": "address"
        },
        {
          "indexed": true,
          "internalType": "address",
          "name": "delegatee",
          "type": "address"
        },
        {
          "indexed": true,
          "internalType": "uint256",
          "name": "amount",
          "type": "uint256"
        }
      ],
      "name": "Delegated",
      "type": "event"
    },
    {
      "anonymous": false,
      "inputs": [
        {
          "indexed": true,
          "internalType": "uint256",
          "name": "lootboxId",
          "type": "uint256"
        },
        {
          "indexed": true,
          "internalType": "uint256",
          "name": "idxOpened",
          "type": "uint256"
        },
        {
          "indexed": true,
          "internalType": "address",
          "name": "user",
          "type": "address"
        }
      ],
      "name": "LootboxOpened",
      "type": "event"
    },
    {
      "anonymous": false,
      "inputs": [
        {
          "indexed": true,
          "internalType": "address",
          "name": "user",
          "type": "address"
        },
        {
          "indexed": true,
          "internalType": "address",
          "name": "newOwner",
          "type": "address"
        }
      ],
      "name": "OwnerUpdated",
      "type": "event"
    },
    {
      "anonymous": false,
      "inputs": [
        {
          "indexed": true,
          "internalType": "address",
          "name": "operator",
          "type": "address"
        },
        {
          "indexed": true,
          "internalType": "address",
          "name": "from",
          "type": "address"
        },
        {
          "indexed": true,
          "internalType": "address",
          "name": "to",
          "type": "address"
        },
        {
          "indexed": false,
          "internalType": "uint256[]",
          "name": "ids",
          "type": "uint256[]"
        },
        {
          "indexed": false,
          "internalType": "uint256[]",
          "name": "amounts",
          "type": "uint256[]"
        }
      ],
      "name": "TransferBatch",
      "type": "event"
    },
    {
      "anonymous": false,
      "inputs": [
        {
          "indexed": true,
          "internalType": "address",
          "name": "operator",
          "type": "address"
        },
        {
          "indexed": true,
          "internalType": "address",
          "name": "from",
          "type": "address"
        },
        {
          "indexed": true,
          "internalType": "address",
          "name": "to",
          "type": "address"
        },
        {
          "indexed": false,
          "internalType": "uint256",
          "name": "id",
          "type": "uint256"
        },
        {
          "indexed": false,
          "internalType": "uint256",
          "name": "amount",
          "type": "uint256"
        }
      ],
      "name": "TransferSingle",
      "type": "event"
    },
    {
      "anonymous": false,
      "inputs": [
        {
          "indexed": false,
          "internalType": "string",
          "name": "value",
          "type": "string"
        },
        {
          "indexed": true,
          "internalType": "uint256",
          "name": "id",
          "type": "uint256"
        }
      ],
      "name": "URI",
      "type": "event"
    },
    {
      "anonymous": false,
      "inputs": [
        {
          "indexed": true,
          "internalType": "address",
          "name": "delegator",
          "type": "address"
        },
        {
          "indexed": true,
          "internalType": "address",
          "name": "delegatee",
          "type": "address"
        },
        {
          "indexed": true,
          "internalType": "uint256",
          "name": "amount",
          "type": "uint256"
        }
      ],
      "name": "Undelegated",
      "type": "event"
    },
    {
      "inputs": [],
      "name": "CREATOR_TOKEN_ID",
      "outputs": [
        {
          "internalType": "uint256",
          "name": "",
          "type": "uint256"
        }
      ],
      "stateMutability": "view",
      "type": "function"
    },
    {
      "inputs": [],
      "name": "INVALID_STARTING_ID",
      "outputs": [
        {
          "internalType": "uint256",
          "name": "",
          "type": "uint256"
        }
      ],
      "stateMutability": "view",
      "type": "function"
    },
    {
      "inputs": [],
      "name": "LOOTBOX_STARTING_ID",
      "outputs": [
        {
          "internalType": "uint256",
          "name": "",
          "type": "uint256"
        }
      ],
      "stateMutability": "view",
      "type": "function"
    },
    {
      "inputs": [],
      "name": "PREMIUM_PASS_STARTING_ID",
      "outputs": [
        {
          "internalType": "uint256",
          "name": "",
          "type": "uint256"
        }
      ],
      "stateMutability": "view",
      "type": "function"
    },
    {
      "inputs": [],
      "name": "REDEEMABLE_STARTING_ID",
      "outputs": [
        {
          "internalType": "uint256",
          "name": "",
          "type": "uint256"
        }
      ],
      "stateMutability": "view",
      "type": "function"
    },
    {
      "inputs": [],
      "name": "SPECIAL_STARTING_ID",
      "outputs": [
        {
          "internalType": "uint256",
          "name": "",
          "type": "uint256"
        }
      ],
      "stateMutability": "view",
      "type": "function"
    },
    {
      "inputs": [
        {
          "internalType": "uint256",
          "name": "_seasonId",
          "type": "uint256"
        },
        {
          "internalType": "uint256",
          "name": "_level",
          "type": "uint256"
        },
        {
          "internalType": "bool",
          "name": "premium",
          "type": "bool"
        },
        {
          "internalType": "uint256",
          "name": "id",
          "type": "uint256"
        },
        {
          "internalType": "uint256",
          "name": "qty",
          "type": "uint256"
        }
      ],
      "name": "addReward",
      "outputs": [],
      "stateMutability": "nonpayable",
      "type": "function"
    },
    {
      "inputs": [
        {
          "internalType": "address",
          "name": "",
          "type": "address"
        },
        {
          "internalType": "uint256",
          "name": "",
          "type": "uint256"
        }
      ],
      "name": "balanceOf",
      "outputs": [
        {
          "internalType": "uint256",
          "name": "",
          "type": "uint256"
        }
      ],
      "stateMutability": "view",
      "type": "function"
    },
    {
      "inputs": [
        {
          "internalType": "address[]",
          "name": "owners",
          "type": "address[]"
        },
        {
          "internalType": "uint256[]",
          "name": "ids",
          "type": "uint256[]"
        }
      ],
      "name": "balanceOfBatch",
      "outputs": [
        {
          "internalType": "uint256[]",
          "name": "balances",
          "type": "uint256[]"
        }
      ],
      "stateMutability": "view",
      "type": "function"
    },
    {
      "inputs": [
        {
          "internalType": "address",
          "name": "to",
          "type": "address"
        },
        {
          "internalType": "uint256",
          "name": "id",
          "type": "uint256"
        },
        {
          "internalType": "uint256",
          "name": "amount",
          "type": "uint256"
        }
      ],
      "name": "burn",
      "outputs": [],
      "stateMutability": "nonpayable",
      "type": "function"
    },
    {
      "inputs": [
        {
          "internalType": "uint256",
          "name": "id",
          "type": "uint256"
        }
      ],
      "name": "calculateRandom",
      "outputs": [
        {
          "internalType": "uint256",
          "name": "",
          "type": "uint256"
        }
      ],
      "stateMutability": "view",
      "type": "function"
    },
    {
      "inputs": [
        {
          "internalType": "uint256",
          "name": "id",
          "type": "uint256"
        }
      ],
      "name": "checkType",
      "outputs": [
        {
          "internalType": "enum RewardType",
          "name": "",
          "type": "uint8"
        }
      ],
      "stateMutability": "pure",
      "type": "function"
    },
    {
      "inputs": [
        {
          "internalType": "uint256",
          "name": "_seasonId",
          "type": "uint256"
        },
        {
          "internalType": "uint256",
          "name": "_level",
          "type": "uint256"
        },
        {
          "internalType": "bool",
          "name": "premium",
          "type": "bool"
        }
      ],
      "name": "claimReward",
      "outputs": [],
      "stateMutability": "nonpayable",
      "type": "function"
    },
    {
      "inputs": [],
      "name": "crafting",
      "outputs": [
        {
          "internalType": "address",
          "name": "",
          "type": "address"
        }
      ],
      "stateMutability": "view",
      "type": "function"
    },
    {
      "inputs": [],
      "name": "creatorId",
      "outputs": [
        {
          "internalType": "uint256",
          "name": "",
          "type": "uint256"
        }
      ],
      "stateMutability": "view",
      "type": "function"
    },
    {
      "inputs": [
        {
          "internalType": "address",
          "name": "delegatee",
          "type": "address"
        },
        {
          "internalType": "uint256",
          "name": "amount",
          "type": "uint256"
        }
      ],
      "name": "delegate",
      "outputs": [],
      "stateMutability": "nonpayable",
      "type": "function"
    },
    {
      "inputs": [
        {
          "internalType": "address",
          "name": "",
          "type": "address"
        },
        {
          "internalType": "address",
          "name": "",
          "type": "address"
        }
      ],
      "name": "delegatedBy",
      "outputs": [
        {
          "internalType": "uint256",
          "name": "",
          "type": "uint256"
        }
      ],
      "stateMutability": "view",
      "type": "function"
    },
    {
      "inputs": [
        {
          "internalType": "address",
          "name": "",
          "type": "address"
        }
      ],
      "name": "delegatedTotal",
      "outputs": [
        {
          "internalType": "uint256",
          "name": "",
          "type": "uint256"
        }
      ],
      "stateMutability": "view",
      "type": "function"
    },
    {
      "inputs": [
        {
          "internalType": "uint256",
          "name": "id",
          "type": "uint256"
        },
        {
          "internalType": "uint256",
          "name": "idx",
          "type": "uint256"
        }
      ],
      "name": "getLootboxOptionByIdx",
      "outputs": [
        {
          "components": [
            {
              "internalType": "uint256[2]",
              "name": "rarityRange",
              "type": "uint256[2]"
            },
            {
              "internalType": "uint256[]",
              "name": "ids",
              "type": "uint256[]"
            },
            {
              "internalType": "uint256[]",
              "name": "qtys",
              "type": "uint256[]"
            }
          ],
          "internalType": "struct LootboxOption",
          "name": "option",
          "type": "tuple"
        }
      ],
      "stateMutability": "view",
      "type": "function"
    },
    {
      "inputs": [
        {
          "internalType": "uint256",
          "name": "id",
          "type": "uint256"
        }
      ],
      "name": "getLootboxOptionsLength",
      "outputs": [
        {
          "internalType": "uint256",
          "name": "",
          "type": "uint256"
        }
      ],
      "stateMutability": "view",
      "type": "function"
    },
    {
      "inputs": [
        {
          "internalType": "uint256",
          "name": "_seasonId",
          "type": "uint256"
        }
      ],
      "name": "getMaxLevel",
      "outputs": [
        {
          "internalType": "uint256",
          "name": "maxLevel",
          "type": "uint256"
        }
      ],
      "stateMutability": "view",
      "type": "function"
    },
    {
      "inputs": [
        {
          "internalType": "uint256",
          "name": "_seasonId",
          "type": "uint256"
        },
        {
          "internalType": "uint256",
          "name": "xp",
          "type": "uint256"
        },
        {
          "internalType": "address",
          "name": "user",
          "type": "address"
        }
      ],
      "name": "giveXp",
      "outputs": [],
      "stateMutability": "nonpayable",
      "type": "function"
    },
    {
      "inputs": [
        {
          "internalType": "address",
          "name": "",
          "type": "address"
        },
        {
          "internalType": "address",
          "name": "",
          "type": "address"
        }
      ],
      "name": "isApprovedForAll",
      "outputs": [
        {
          "internalType": "bool",
          "name": "",
          "type": "bool"
        }
      ],
      "stateMutability": "view",
      "type": "function"
    },
    {
      "inputs": [
        {
          "internalType": "address",
          "name": "user",
          "type": "address"
        },
        {
          "internalType": "uint256",
          "name": "_seasonId",
          "type": "uint256"
        },
        {
          "internalType": "uint256",
          "name": "_level",
          "type": "uint256"
        },
        {
          "internalType": "bool",
          "name": "premium",
          "type": "bool"
        }
      ],
      "name": "isRewardClaimed",
      "outputs": [
        {
          "internalType": "bool",
          "name": "",
          "type": "bool"
        }
      ],
      "stateMutability": "view",
      "type": "function"
    },
    {
      "inputs": [
        {
          "internalType": "address",
          "name": "forwarder",
          "type": "address"
        }
      ],
      "name": "isTrustedForwarder",
      "outputs": [
        {
          "internalType": "bool",
          "name": "",
          "type": "bool"
        }
      ],
      "stateMutability": "view",
      "type": "function"
    },
    {
      "inputs": [
        {
          "internalType": "address",
          "name": "user",
          "type": "address"
        },
        {
          "internalType": "uint256",
          "name": "_seasonId",
          "type": "uint256"
        }
      ],
      "name": "isUserPremium",
      "outputs": [
        {
          "internalType": "bool",
          "name": "",
          "type": "bool"
        }
      ],
      "stateMutability": "view",
      "type": "function"
    },
    {
      "inputs": [
        {
          "internalType": "address",
          "name": "user",
          "type": "address"
        },
        {
          "internalType": "uint256",
          "name": "_seasonId",
          "type": "uint256"
        }
      ],
      "name": "level",
      "outputs": [
        {
          "internalType": "uint256",
          "name": "userLevel",
          "type": "uint256"
        }
      ],
      "stateMutability": "view",
      "type": "function"
    },
    {
      "inputs": [],
      "name": "lootboxId",
      "outputs": [
        {
          "internalType": "uint256",
          "name": "",
          "type": "uint256"
        }
      ],
      "stateMutability": "view",
      "type": "function"
    },
    {
      "inputs": [
        {
          "internalType": "address",
          "name": "to",
          "type": "address"
        },
        {
          "internalType": "uint256",
          "name": "id",
          "type": "uint256"
        },
        {
          "internalType": "uint256",
          "name": "amount",
          "type": "uint256"
        }
      ],
      "name": "mint",
      "outputs": [],
      "stateMutability": "nonpayable",
      "type": "function"
    },
    {
      "inputs": [
        {
          "components": [
            {
              "internalType": "uint256[2]",
              "name": "rarityRange",
              "type": "uint256[2]"
            },
            {
              "internalType": "uint256[]",
              "name": "ids",
              "type": "uint256[]"
            },
            {
              "internalType": "uint256[]",
              "name": "qtys",
              "type": "uint256[]"
            }
          ],
          "internalType": "struct LootboxOption[]",
          "name": "options",
          "type": "tuple[]"
        }
      ],
      "name": "newLootbox",
      "outputs": [
        {
          "internalType": "uint256",
          "name": "",
          "type": "uint256"
        }
      ],
      "stateMutability": "nonpayable",
      "type": "function"
    },
    {
      "inputs": [
        {
          "components": [
            {
              "internalType": "uint256",
              "name": "xpToCompleteLevel",
              "type": "uint256"
            },
            {
              "internalType": "uint256",
              "name": "freeRewardId",
              "type": "uint256"
            },
            {
              "internalType": "uint256",
              "name": "freeRewardQty",
              "type": "uint256"
            },
            {
              "internalType": "uint256",
              "name": "premiumRewardId",
              "type": "uint256"
            },
            {
              "internalType": "uint256",
              "name": "premiumRewardQty",
              "type": "uint256"
            }
          ],
          "internalType": "struct LevelInfo[]",
          "name": "levelInfo",
          "type": "tuple[]"
        }
      ],
      "name": "newSeason",
      "outputs": [
        {
          "internalType": "uint256",
          "name": "",
          "type": "uint256"
        }
      ],
      "stateMutability": "nonpayable",
      "type": "function"
    },
    {
      "inputs": [
        {
          "internalType": "uint256",
          "name": "id",
          "type": "uint256"
        }
      ],
      "name": "openLootbox",
      "outputs": [
        {
          "internalType": "uint256",
          "name": "",
          "type": "uint256"
        }
      ],
      "stateMutability": "nonpayable",
      "type": "function"
    },
    {
      "inputs": [],
      "name": "owner",
      "outputs": [
        {
          "internalType": "address",
          "name": "",
          "type": "address"
        }
      ],
      "stateMutability": "view",
      "type": "function"
    },
    {
      "inputs": [
        {
          "internalType": "address",
          "name": "from",
          "type": "address"
        },
        {
          "internalType": "address",
          "name": "to",
          "type": "address"
        },
        {
          "internalType": "uint256[]",
          "name": "ids",
          "type": "uint256[]"
        },
        {
          "internalType": "uint256[]",
          "name": "amounts",
          "type": "uint256[]"
        },
        {
          "internalType": "bytes",
          "name": "data",
          "type": "bytes"
        }
      ],
      "name": "safeBatchTransferFrom",
      "outputs": [],
      "stateMutability": "nonpayable",
      "type": "function"
    },
    {
      "inputs": [
        {
          "internalType": "address",
          "name": "from",
          "type": "address"
        },
        {
          "internalType": "address",
          "name": "to",
          "type": "address"
        },
        {
          "internalType": "uint256",
          "name": "id",
          "type": "uint256"
        },
        {
          "internalType": "uint256",
          "name": "amount",
          "type": "uint256"
        },
        {
          "internalType": "bytes",
          "name": "data",
          "type": "bytes"
        }
      ],
      "name": "safeTransferFrom",
      "outputs": [],
      "stateMutability": "nonpayable",
      "type": "function"
    },
    {
      "inputs": [],
      "name": "seasonId",
      "outputs": [
        {
          "internalType": "uint256",
          "name": "",
          "type": "uint256"
        }
      ],
      "stateMutability": "view",
      "type": "function"
    },
    {
      "inputs": [
        {
          "internalType": "uint256",
          "name": "",
          "type": "uint256"
        },
        {
          "internalType": "uint256",
          "name": "",
          "type": "uint256"
        }
      ],
      "name": "seasonInfo",
      "outputs": [
        {
          "internalType": "uint256",
          "name": "xpToCompleteLevel",
          "type": "uint256"
        },
        {
          "internalType": "uint256",
          "name": "freeRewardId",
          "type": "uint256"
        },
        {
          "internalType": "uint256",
          "name": "freeRewardQty",
          "type": "uint256"
        },
        {
          "internalType": "uint256",
          "name": "premiumRewardId",
          "type": "uint256"
        },
        {
          "internalType": "uint256",
          "name": "premiumRewardQty",
          "type": "uint256"
        }
      ],
      "stateMutability": "view",
      "type": "function"
    },
    {
      "inputs": [
        {
          "internalType": "address",
          "name": "operator",
          "type": "address"
        },
        {
          "internalType": "bool",
          "name": "approved",
          "type": "bool"
        }
      ],
      "name": "setApprovalForAll",
      "outputs": [],
      "stateMutability": "nonpayable",
      "type": "function"
    },
    {
      "inputs": [
        {
          "internalType": "address",
          "name": "_crafting",
          "type": "address"
        }
      ],
      "name": "setCrafting",
      "outputs": [],
      "stateMutability": "nonpayable",
      "type": "function"
    },
    {
      "inputs": [
        {
          "internalType": "address",
          "name": "newOwner",
          "type": "address"
        }
      ],
      "name": "setOwner",
      "outputs": [],
      "stateMutability": "nonpayable",
      "type": "function"
    },
    {
      "inputs": [
        {
          "internalType": "string",
          "name": "_uri",
          "type": "string"
        }
      ],
      "name": "setURI",
      "outputs": [],
      "stateMutability": "nonpayable",
      "type": "function"
    },
    {
      "inputs": [
        {
          "internalType": "uint256",
          "name": "_seasonId",
          "type": "uint256"
        },
        {
          "internalType": "uint256",
          "name": "_level",
          "type": "uint256"
        },
        {
          "internalType": "uint256",
          "name": "xp",
          "type": "uint256"
        }
      ],
      "name": "setXp",
      "outputs": [],
      "stateMutability": "nonpayable",
      "type": "function"
    },
    {
      "inputs": [
        {
          "internalType": "bytes4",
          "name": "interfaceId",
          "type": "bytes4"
        }
      ],
      "name": "supportsInterface",
      "outputs": [
        {
          "internalType": "bool",
          "name": "",
          "type": "bool"
        }
      ],
      "stateMutability": "view",
      "type": "function"
    },
    {
      "inputs": [],
      "name": "tokenURI",
      "outputs": [
        {
          "internalType": "string",
          "name": "",
          "type": "string"
        }
      ],
      "stateMutability": "view",
      "type": "function"
    },
    {
      "inputs": [
        {
          "internalType": "address",
          "name": "delegatee",
          "type": "address"
        },
        {
          "internalType": "uint256",
          "name": "amount",
          "type": "uint256"
        }
      ],
      "name": "undelegate",
      "outputs": [],
      "stateMutability": "nonpayable",
      "type": "function"
    },
    {
      "inputs": [
        {
          "internalType": "uint256",
          "name": "id",
          "type": "uint256"
        }
      ],
      "name": "uri",
      "outputs": [
        {
          "internalType": "string",
          "name": "",
          "type": "string"
        }
      ],
      "stateMutability": "view",
      "type": "function"
    },
    {
      "inputs": [
        {
          "internalType": "address",
          "name": "",
          "type": "address"
        },
        {
          "internalType": "uint256",
          "name": "",
          "type": "uint256"
        }
      ],
      "name": "userInfo",
      "outputs": [
        {
          "internalType": "uint256",
          "name": "xp",
          "type": "uint256"
        },
        {
          "internalType": "bool",
          "name": "claimedPremiumPass",
          "type": "bool"
        }
      ],
      "stateMutability": "view",
      "type": "function"
    }
  ],
  "bytecode": {
    "object": "0x60c06040526200001360016103e9620000f2565b6005553480156200002357600080fd5b5060405162003f8938038062003f89833981016040819052620000469162000118565b600280546001600160a01b0319163390811790915560405183918391819081906000907f8292fce18fa69edf4db7b94ea2e58241df0ae57f97e0a6c9b29067028bf92d76908290a3506001600160a01b03166080526040805160608101909152603380825262003f566020830139600490620000c39082620001fc565b5060a091909152600380546001600160a01b0319166001600160a01b0390921691909117905550620002c89050565b6000828210156200011357634e487b7160e01b600052601160045260246000fd5b500390565b600080604083850312156200012c57600080fd5b825160208401519092506001600160a01b03811681146200014c57600080fd5b809150509250929050565b634e487b7160e01b600052604160045260246000fd5b600181811c908216806200018257607f821691505b602082108103620001a357634e487b7160e01b600052602260045260246000fd5b50919050565b601f821115620001f757600081815260208120601f850160051c81016020861015620001d25750805b601f850160051c820191505b81811015620001f357828155600101620001de565b5050505b505050565b81516001600160401b0381111562000218576200021862000157565b62000230816200022984546200016d565b84620001a9565b602080601f8311600181146200026857600084156200024f5750858301515b600019600386901b1c1916600185901b178555620001f3565b600085815260208120601f198616915b82811015620002995788860151825594840194600190910190840162000278565b5085821015620002b85787850151600019600388901b60f8161c191681555b5050505050600190811b01905550565b60805160a051613c5a620002fc600039600081816107aa0152610a6d015260008181610571015261253c0152613c5a6000f3fe608060405234801561001057600080fd5b50600436106103135760003560e01c80636d656a2f116101a7578063a22cb465116100ee578063cde2347411610097578063e985e9c511610071578063e985e9c5146107cc578063f242432a146107fa578063f5298aca1461080d57600080fd5b8063cde2347414610772578063d2409af014610792578063e58324ea146107a557600080fd5b8063c089da25116100c8578063c089da25146106ed578063c660005b1461073f578063ca638cb81461075f57600080fd5b8063a22cb465146106b1578063a76bfa65146106c4578063b8b96a68146106cd57600080fd5b80638da5cb5b1161015057806394f568dd1161012a57806394f568dd14610678578063950aca561461068b578063978f6d6c1461069e57600080fd5b80638da5cb5b14610627578063909c86e31461065257806391f1cf051461066557600080fd5b80637f13aadc116101815780637f13aadc146105f85780637ff481901461060157806384a21a401461061457600080fd5b80636d656a2f146105bd57806377cffeb8146105d057806378b00d38146105f057600080fd5b80632a378afa1161026b5780634e1273f411610214578063572b6c05116101ee578063572b6c05146105615780635a50b3e5146105a15780636cad184b146105b457600080fd5b80634e1273f4146105255780634fb9d2cb1461054557806352f43e9b1461055857600080fd5b80633c130d90116102455780633c130d901461049a5780633f6bf326146104a25780634d99dd161461051257600080fd5b80632a378afa1461046b5780632eb2c2d61461047e578063305948791461049157600080fd5b806304922960116102cd578063156e29f6116102a7578063156e29f6146103e357806321ce919d146103f657806322ab96b71461044057600080fd5b806304922960146103a75780630e89341c146103b057806313af4035146103d057600080fd5b806301ffc9a7116102fe57806301ffc9a71461035c578063026e402b1461037f57806302fe53051461039457600080fd5b806202145414610318578062fdd58e14610334575b600080fd5b61032161271081565b6040519081526020015b60405180910390f35b610321610342366004612c4b565b600060208181529281526040808220909352908152205481565b61036f61036a366004612ca6565b610820565b604051901515815260200161032b565b61039261038d366004612c4b565b610905565b005b6103926103a2366004612d76565b6109f5565b61032160095481565b6103c36103be366004612e0b565b610a64565b60405161032b9190612e7c565b6103926103de366004612e8f565b610ac2565b6103926103f1366004612eaa565b610b80565b61042b610404366004612c4b565b600b6020908152600092835260408084209091529082529020805460019091015460ff1682565b6040805192835290151560208301520161032b565b61032161044e366004612edd565b600760209081526000928352604080842090915290825290205481565b610321610479366004612f10565b610bfa565b61039261048c366004613013565b610e07565b61032161753081565b6103c3611128565b6104ea6104b03660046130ce565b600a602090815260009283526040808420909152908252902080546001820154600283015460038401546004909401549293919290919085565b604080519586526020860194909452928401919091526060830152608082015260a00161032b565b610392610520366004612c4b565b6111b6565b6105386105333660046130f0565b6112a6565b60405161032b9190613197565b610392610553366004612e8f565b6113e9565b610321614e2081565b61036f61056f366004612e8f565b7f00000000000000000000000000000000000000000000000000000000000000006001600160a01b0390811691161490565b6103926105af3660046131aa565b61147d565b6103216103e981565b6103926105cb3660046131ef565b611514565b6105e36105de3660046130ce565b6115cd565b60405161032b9190613236565b610321600181565b6103216103e881565b61032161060f366004612e0b565b6116f5565b610321610622366004613334565b61189b565b60025461063a906001600160a01b031681565b6040516001600160a01b03909116815260200161032b565b610321610660366004612c4b565b611ad3565b60035461063a906001600160a01b031681565b610321610686366004612e0b565b611b67565b610321610699366004612e0b565b611bbe565b6103926106ac36600461348c565b611dff565b6103926106bf3660046134b8565b611e75565b61032160055481565b6103216106db366004612e8f565b60086020526000908152604090205481565b61036f6106fb3660046134e2565b6001600160a01b0384166000908152600b6020908152604080832086845282528083208584526002018252808320841515845290915290205460ff16949350505050565b61075261074d366004612e0b565b611eff565b60405161032b9190613528565b61039261076d366004613569565b611fc6565b610321610780366004612e0b565b60009081526006602052604090205490565b61036f6107a0366004612c4b565b61222f565b6103217f000000000000000000000000000000000000000000000000000000000000000081565b61036f6107da366004612edd565b600160209081526000928352604080842090915290825290205460ff1681565b610392610808366004613595565b61229b565b61039261081b366004612eaa565b612505565b60007f01ffc9a7000000000000000000000000000000000000000000000000000000007fffffffff00000000000000000000000000000000000000000000000000000000831614806108b357507fd9b67a26000000000000000000000000000000000000000000000000000000007fffffffff000000000000000000000000000000000000000000000000000000008316145b806108ff57507f0e89341c000000000000000000000000000000000000000000000000000000007fffffffff000000000000000000000000000000000000000000000000000000008316145b92915050565b600061090f612538565b6001600160a01b0381166000908152602081815260408083206103e8845290915281208054929350849290919061094790849061363c565b90915550506001600160a01b03808216600090815260076020908152604080832093871683529290529081208054849290610983908490613653565b90915550506001600160a01b038316600090815260086020526040812080548492906109b0908490613653565b909155505060405182906001600160a01b0380861691908416907fe5541a6b6103d4fa7e021ed54fad39c66f27a76bd13d374cf6240ae6bd0bb72b90600090a4505050565b6002546001600160a01b03163314610a545760405162461bcd60e51b815260206004820152600c60248201527f554e415554484f52495a4544000000000000000000000000000000000000000060448201526064015b60405180910390fd5b6004610a6082826136fe565b5050565b60606004610a917f000000000000000000000000000000000000000000000000000000000000000061259a565b610a9a8461259a565b604051602001610aac93929190613816565b6040516020818303038152906040529050919050565b6002546001600160a01b03163314610b1c5760405162461bcd60e51b815260206004820152600c60248201527f554e415554484f52495a454400000000000000000000000000000000000000006044820152606401610a4b565b600280547fffffffffffffffffffffffff0000000000000000000000000000000000000000166001600160a01b03831690811790915560405133907f8292fce18fa69edf4db7b94ea2e58241df0ae57f97e0a6c9b29067028bf92d7690600090a350565b6002546001600160a01b0316331480610ba357506003546001600160a01b031633145b15610bc857610bc3838383604051806020016040528060008152506126d7565b505050565b6040517f2c1a75e200000000000000000000000000000000000000000000000000000000815260040160405180910390fd5b6002546000906001600160a01b03163314610c575760405162461bcd60e51b815260206004820152600c60248201527f554e415554484f52495a454400000000000000000000000000000000000000006044820152606401610a4b565b60098054906000610c6783613945565b9091555060009050610c7a60018461363c565b9050838382818110610c8e57610c8e61397d565b905060a0020160000135600014610cd1576040517f293f6e5500000000000000000000000000000000000000000000000000000000815260040160405180910390fd5b60005b818111610dfb57848482818110610ced57610ced61397d565b6009546000908152600a60209081526040808320878452909152902060a0909102929092013590915550848482818110610d2957610d2961397d565b905060a0020160200135600014610d8057610d80600954826000888886818110610d5557610d5561397d565b905060a0020160200135898987818110610d7157610d7161397d565b905060a0020160400135611514565b848482818110610d9257610d9261397d565b905060a0020160600135600014610de957610de9600954826001888886818110610dbe57610dbe61397d565b905060a0020160600135898987818110610dda57610dda61397d565b905060a0020160800135611514565b80610df381613945565b915050610cd4565b50506009549392505050565b848314610e565760405162461bcd60e51b815260206004820152600f60248201527f4c454e4754485f4d49534d4154434800000000000000000000000000000000006044820152606401610a4b565b336001600160a01b0389161480610e9057506001600160a01b038816600090815260016020908152604080832033845290915290205460ff165b610edc5760405162461bcd60e51b815260206004820152600e60248201527f4e4f545f415554484f52495a45440000000000000000000000000000000000006044820152606401610a4b565b60008060005b87811015610f9757888882818110610efc57610efc61397d565b905060200201359250868682818110610f1757610f1761397d565b6001600160a01b038e1660009081526020818152604080832089845282528220805493909102949094013595508593925090610f5490849061363c565b90915550506001600160a01b038a1660009081526020818152604080832086845290915281208054849290610f8a908490613653565b9091555050600101610ee2565b50886001600160a01b03168a6001600160a01b0316336001600160a01b03167f4a39dc06d4c0dbc64b70af90fd698a233a518aa5d07e595d983b8c0526c8f7fb8b8b8b8b604051610feb94939291906139fb565b60405180910390a46001600160a01b0389163b156110c3576040517fbc197c8100000000000000000000000000000000000000000000000000000000808252906001600160a01b038b169063bc197c81906110589033908f908e908e908e908e908e908e90600401613a58565b6020604051808303816000875af1158015611077573d6000803e3d6000fd5b505050506040513d601f19601f8201168201806040525081019061109b9190613abc565b7fffffffff0000000000000000000000000000000000000000000000000000000016146110d0565b6001600160a01b03891615155b61111c5760405162461bcd60e51b815260206004820152601060248201527f554e534146455f524543495049454e54000000000000000000000000000000006044820152606401610a4b565b50505050505050505050565b600480546111359061366b565b80601f01602080910402602001604051908101604052809291908181526020018280546111619061366b565b80156111ae5780601f10611183576101008083540402835291602001916111ae565b820191906000526020600020905b81548152906001019060200180831161119157829003601f168201915b505050505081565b60006111c0612538565b6001600160a01b0381166000908152602081815260408083206103e884529091528120805492935084929091906111f8908490613653565b90915550506001600160a01b0380821660009081526007602090815260408083209387168352929052908120805484929061123490849061363c565b90915550506001600160a01b0383166000908152600860205260408120805484929061126190849061363c565b909155505060405182906001600160a01b0380861691908416907f4d10bd049775c77bd7f255195afba5088028ecb3c7c277d393ccff7934f2f92c90600090a4505050565b60608382146112f75760405162461bcd60e51b815260206004820152600f60248201527f4c454e4754485f4d49534d4154434800000000000000000000000000000000006044820152606401610a4b565b8367ffffffffffffffff81111561131057611310612cca565b604051908082528060200260200182016040528015611339578160200160208202803683370190505b50905060005b848110156113e05760008087878481811061135c5761135c61397d565b90506020020160208101906113719190612e8f565b6001600160a01b03166001600160a01b0316815260200190815260200160002060008585848181106113a5576113a561397d565b905060200201358152602001908152602001600020548282815181106113cd576113cd61397d565b602090810291909101015260010161133f565b50949350505050565b6002546001600160a01b031633146114435760405162461bcd60e51b815260206004820152600c60248201527f554e415554484f52495a454400000000000000000000000000000000000000006044820152606401610a4b565b600380547fffffffffffffffffffffffff0000000000000000000000000000000000000000166001600160a01b0392909216919091179055565b6002546001600160a01b031633146114d75760405162461bcd60e51b815260206004820152600c60248201527f554e415554484f52495a454400000000000000000000000000000000000000006044820152606401610a4b565b6001600160a01b0381166000908152600b602090815260408083208684529091528120805484929061150a908490613653565b9091555050505050565b6002546001600160a01b0316331461156e5760405162461bcd60e51b815260206004820152600c60248201527f554e415554484f52495a454400000000000000000000000000000000000000006044820152606401610a4b565b821561159f576000858152600a602090815260408083208784529091529020600381018390556004018190556115c6565b6000858152600a602090815260408083208784529091529020600181018390556002018190555b5050505050565b6115d5612b62565b60008381526006602052604090208054839081106115f5576115f561397d565b600091825260209091206040805160a08101909152916004020181606081018260028282826020028201915b81548152602001906001019080831161162157505050505081526020016002820180548060200260200160405190810160405280929190818152602001828054801561168c57602002820191906000526020600020905b815481526020019060010190808311611678575b50505050508152602001600382018054806020026020016040519081016040528092919081815260200182805480156116e457602002820191906000526020600020905b8154815260200190600101908083116116d0575b505050505081525050905092915050565b600080611700612538565b905061170e81846001612880565b600061171984611bbe565b6000858152600660205260408120805492935090918390811061173e5761173e61397d565b600091825260209091206040805160a08101909152916004020181606081018260028282826020028201915b81548152602001906001019080831161176a5750505050508152602001600282018054806020026020016040519081016040528092919081815260200182805480156117d557602002820191906000526020600020905b8154815260200190600101908083116117c1575b505050505081526020016003820180548060200260200160405190810160405280929190818152602001828054801561182d57602002820191906000526020600020905b815481526020019060010190808311611819575b505050505081525050905061185b838260200151836040015160405180602001604052806000815250612904565b826001600160a01b031682867ff6cb9a290c1214c48e0f14fdb09468e4057a0e867e57e56aae4d08683765f6ae60405160405180910390a4509392505050565b6002546000906001600160a01b031633146118f85760405162461bcd60e51b815260206004820152600c60248201527f554e415554484f52495a454400000000000000000000000000000000000000006044820152606401610a4b565b6005805490600061190883613945565b9091555060009050805b8351811015611a8d5783818151811061192d5761192d61397d565b6020026020010151604001515184828151811061194c5761194c61397d565b6020026020010151602001515114611990576040517fae5748c500000000000000000000000000000000000000000000000000000000815260040160405180910390fd5b8381815181106119a2576119a261397d565b6020908102919091010151515184518590839081106119c3576119c361397d565b6020908102919091018101515101516119dc919061363c565b6119e69083613653565b9150600660006005548152602001908152602001600020848281518110611a0f57611a0f61397d565b6020908102919091018101518254600181018455600093845291909220825160049092020190611a429082906002612b89565b506020828101518051611a5b9260028501920190612bc7565b5060408201518051611a77916003840191602090910190612bc7565b5050508080611a8590613945565b915050611912565b5080606414611ac8576040517fae5748c500000000000000000000000000000000000000000000000000000000815260040160405180910390fd5b50506005545b919050565b600080611adf83611b67565b6001600160a01b0385166000908152600b60209081526040808320878452909152812054919250805b83811015611b5d576000868152600a60209081526040808320848452909152902054611b349083613653565b9150828211611b5d5784611b4781613945565b9550508080611b5590613945565b915050611b08565b5050505092915050565b6000818152600a602090815260408083208380529091528120545b8015611bb85781611b9281613945565b6000858152600a602090815260408083208484529091529020549093509150611b829050565b50919050565b6040805142602082015243409181019190915244606082015260009081906064906080016040516020818303038152906040528051906020012060001c611c059190613b08565b9050600060066000858152602001908152602001600020805480602002602001604051908101604052809291908181526020016000905b82821015611d4b576000848152602090206040805160a0810190915290600484020181606081018260028282826020028201915b815481526020019060010190808311611c70575050505050815260200160028201805480602002602001604051908101604052809291908181526020018280548015611cdb57602002820191906000526020600020905b815481526020019060010190808311611cc7575b5050505050815260200160038201805480602002602001604051908101604052809291908181526020018280548015611d3357602002820191906000526020600020905b815481526020019060010190808311611d1f575b50505050508152505081526020019060010190611c3c565b50505050905060005b8151811015611dc957818181518110611d6f57611d6f61397d565b602090810291909101015151518310801590611daa5750818181518110611d9857611d9861397d565b60209081029190910181015151015183105b15611db757949350505050565b80611dc181613945565b915050611d54565b506040517f48e40aac00000000000000000000000000000000000000000000000000000000815260048101859052602401610a4b565b6002546001600160a01b03163314611e595760405162461bcd60e51b815260206004820152600c60248201527f554e415554484f52495a454400000000000000000000000000000000000000006044820152606401610a4b565b6000928352600a60209081526040808520938552929052912055565b3360008181526001602090815260408083206001600160a01b0387168085529083529281902080547fffffffffffffffffffffffffffffffffffffffffffffffffffffffffffffff001686151590811790915590519081529192917f17307eab39ab6107e8899845ad3d59bd9653f200f220920489ca2b5937696c31910160405180910390a35050565b60006103e88203611f1257506001919050565b60018210158015611f2457506103e882105b15611f3157506000919050565b6103e98210158015611f44575061271082105b15611f5157506002919050565b6127108210158015611f645750614e2082105b15611f7157506003919050565b614e208210158015611f84575061753082105b15611f9157506004919050565b6040517fe4a4718200000000000000000000000000000000000000000000000000000000815260048101839052602401610a4b565b6000611fd0612538565b905082611fdd8286611ad3565b1015612015576040517f5103c87800000000000000000000000000000000000000000000000000000000815260040160405180910390fd5b6001600160a01b0381166000908152600b60209081526040808320878452825280832086845260028101835281842086151585529092529091205460ff161561208a576040517fb3f8c0dc00000000000000000000000000000000000000000000000000000000815260040160405180910390fd5b60008481526002820160209081526040808320861580158552925290912080547fffffffffffffffffffffffffffffffffffffffffffffffffffffffffffffff001660011790556121c8576000858152600a6020908152604080832087845290915281206003015490036120ff575050505050565b612109828661222f565b1561219657600181015460ff1661215457600181810180547fffffffffffffffffffffffffffffffffffffffffffffffffffffffffffffff0016821790556121549083908790612880565b6000858152600a602090815260408083208784528252808320600381015460049091015482519384019092529282526121919285929091906126d7565b6115c6565b6040517ffb767ea600000000000000000000000000000000000000000000000000000000815260040160405180910390fd5b6000858152600a6020908152604080832087845290915281206001015490036121f2575050505050565b6000858152600a602090815260408083208784528252808320600181015460029091015482519384019092529282526115c69285929091906126d7565b6001600160a01b0382166000908152600b6020908152604080832084845290915281206001015460ff168061228657506001600160a01b038316600090815260208181526040808320858452909152902054600111155b15612293575060016108ff565b5060006108ff565b336001600160a01b03871614806122d557506001600160a01b038616600090815260016020908152604080832033845290915290205460ff165b6123215760405162461bcd60e51b815260206004820152600e60248201527f4e4f545f415554484f52495a45440000000000000000000000000000000000006044820152606401610a4b565b6001600160a01b0386166000908152602081815260408083208784529091528120805485929061235290849061363c565b90915550506001600160a01b03851660009081526020818152604080832087845290915281208054859290612388908490613653565b909155505060408051858152602081018590526001600160a01b03808816929089169133917fc3d58168c5ae7397731d063d5bbf3d657854427343f4c083240f7aacaa2d0f62910160405180910390a46001600160a01b0385163b156124a4576040517ff23a6e6100000000000000000000000000000000000000000000000000000000808252906001600160a01b0387169063f23a6e61906124399033908b908a908a908a908a90600401613b1c565b6020604051808303816000875af1158015612458573d6000803e3d6000fd5b505050506040513d601f19601f8201168201806040525081019061247c9190613abc565b7fffffffff0000000000000000000000000000000000000000000000000000000016146124b1565b6001600160a01b03851615155b6124fd5760405162461bcd60e51b815260206004820152601060248201527f554e534146455f524543495049454e54000000000000000000000000000000006044820152606401610a4b565b505050505050565b6002546001600160a01b031633148061252857506003546001600160a01b031633145b15610bc857610bc3838383612880565b60007f00000000000000000000000000000000000000000000000000000000000000006001600160a01b0316330361259557507fffffffffffffffffffffffffffffffffffffffffffffffffffffffffffffffec36013560601c90565b503390565b6060816000036125dd57505060408051808201909152600181527f3000000000000000000000000000000000000000000000000000000000000000602082015290565b8160005b811561260757806125f181613945565b91506126009050600a83613b61565b91506125e1565b60008167ffffffffffffffff81111561262257612622612cca565b6040519080825280601f01601f19166020018201604052801561264c576020820181803683370190505b5090505b84156126cf5761266160018361363c565b915061266e600a86613b08565b612679906030613653565b60f81b81838151811061268e5761268e61397d565b60200101907effffffffffffffffffffffffffffffffffffffffffffffffffffffffffffff1916908160001a9053506126c8600a86613b61565b9450612650565b949350505050565b6001600160a01b03841660009081526020818152604080832086845290915281208054849290612708908490613653565b909155505060408051848152602081018490526001600160a01b0386169160009133917fc3d58168c5ae7397731d063d5bbf3d657854427343f4c083240f7aacaa2d0f62910160405180910390a46001600160a01b0384163b15612821576040517ff23a6e6100000000000000000000000000000000000000000000000000000000808252906001600160a01b0386169063f23a6e61906127b6903390600090899089908990600401613b75565b6020604051808303816000875af11580156127d5573d6000803e3d6000fd5b505050506040513d601f19601f820116820180604052508101906127f99190613abc565b7fffffffff00000000000000000000000000000000000000000000000000000000161461282e565b6001600160a01b03841615155b61287a5760405162461bcd60e51b815260206004820152601060248201527f554e534146455f524543495049454e54000000000000000000000000000000006044820152606401610a4b565b50505050565b6001600160a01b038316600090815260208181526040808320858452909152812080548392906128b190849061363c565b909155505060408051838152602081018390526000916001600160a01b0386169133917fc3d58168c5ae7397731d063d5bbf3d657854427343f4c083240f7aacaa2d0f62910160405180910390a4505050565b8251825181146129565760405162461bcd60e51b815260206004820152600f60248201527f4c454e4754485f4d49534d4154434800000000000000000000000000000000006044820152606401610a4b565b60005b818110156129e5578381815181106129735761297361397d565b6020026020010151600080886001600160a01b03166001600160a01b0316815260200190815260200160002060008784815181106129b3576129b361397d565b6020026020010151815260200190815260200160002060008282546129d89190613653565b9091555050600101612959565b50846001600160a01b031660006001600160a01b0316336001600160a01b03167f4a39dc06d4c0dbc64b70af90fd698a233a518aa5d07e595d983b8c0526c8f7fb8787604051612a36929190613bad565b60405180910390a46001600160a01b0385163b15612b09576040517fbc197c8100000000000000000000000000000000000000000000000000000000808252906001600160a01b0387169063bc197c8190612a9e9033906000908a908a908a90600401613bd2565b6020604051808303816000875af1158015612abd573d6000803e3d6000fd5b505050506040513d601f19601f82011682018060405250810190612ae19190613abc565b7fffffffff000000000000000000000000000000000000000000000000000000001614612b16565b6001600160a01b03851615155b6115c65760405162461bcd60e51b815260206004820152601060248201527f554e534146455f524543495049454e54000000000000000000000000000000006044820152606401610a4b565b6040518060600160405280612b75612c01565b815260200160608152602001606081525090565b8260028101928215612bb7579160200282015b82811115612bb7578251825591602001919060010190612b9c565b50612bc3929150612c1f565b5090565b828054828255906000526020600020908101928215612bb75791602002820182811115612bb7578251825591602001919060010190612b9c565b60405180604001604052806002906020820280368337509192915050565b5b80821115612bc35760008155600101612c20565b80356001600160a01b0381168114611ace57600080fd5b60008060408385031215612c5e57600080fd5b612c6783612c34565b946020939093013593505050565b7fffffffff0000000000000000000000000000000000000000000000000000000081168114612ca357600080fd5b50565b600060208284031215612cb857600080fd5b8135612cc381612c75565b9392505050565b7f4e487b7100000000000000000000000000000000000000000000000000000000600052604160045260246000fd5b6040516060810167ffffffffffffffff81118282101715612d1c57612d1c612cca565b60405290565b6040805190810167ffffffffffffffff81118282101715612d1c57612d1c612cca565b604051601f8201601f1916810167ffffffffffffffff81118282101715612d6e57612d6e612cca565b604052919050565b60006020808385031215612d8957600080fd5b823567ffffffffffffffff80821115612da157600080fd5b818501915085601f830112612db557600080fd5b813581811115612dc757612dc7612cca565b612dd984601f19601f84011601612d45565b91508082528684828501011115612def57600080fd5b8084840185840137600090820190930192909252509392505050565b600060208284031215612e1d57600080fd5b5035919050565b60005b83811015612e3f578181015183820152602001612e27565b8381111561287a5750506000910152565b60008151808452612e68816020860160208601612e24565b601f01601f19169290920160200192915050565b602081526000612cc36020830184612e50565b600060208284031215612ea157600080fd5b612cc382612c34565b600080600060608486031215612ebf57600080fd5b612ec884612c34565b95602085013595506040909401359392505050565b60008060408385031215612ef057600080fd5b612ef983612c34565b9150612f0760208401612c34565b90509250929050565b60008060208385031215612f2357600080fd5b823567ffffffffffffffff80821115612f3b57600080fd5b818501915085601f830112612f4f57600080fd5b813581811115612f5e57600080fd5b86602060a083028501011115612f7357600080fd5b60209290920196919550909350505050565b60008083601f840112612f9757600080fd5b50813567ffffffffffffffff811115612faf57600080fd5b6020830191508360208260051b8501011115612fca57600080fd5b9250929050565b60008083601f840112612fe357600080fd5b50813567ffffffffffffffff811115612ffb57600080fd5b602083019150836020828501011115612fca57600080fd5b60008060008060008060008060a0898b03121561302f57600080fd5b61303889612c34565b975061304660208a01612c34565b9650604089013567ffffffffffffffff8082111561306357600080fd5b61306f8c838d01612f85565b909850965060608b013591508082111561308857600080fd5b6130948c838d01612f85565b909650945060808b01359150808211156130ad57600080fd5b506130ba8b828c01612fd1565b999c989b5096995094979396929594505050565b600080604083850312156130e157600080fd5b50508035926020909101359150565b6000806000806040858703121561310657600080fd5b843567ffffffffffffffff8082111561311e57600080fd5b61312a88838901612f85565b9096509450602087013591508082111561314357600080fd5b5061315087828801612f85565b95989497509550505050565b600081518084526020808501945080840160005b8381101561318c57815187529582019590820190600101613170565b509495945050505050565b602081526000612cc3602083018461315c565b6000806000606084860312156131bf57600080fd5b83359250602084013591506131d660408501612c34565b90509250925092565b80358015158114611ace57600080fd5b600080600080600060a0868803121561320757600080fd5b853594506020860135935061321e604087016131df565b94979396509394606081013594506080013592915050565b6020808252825160009190828483015b6002821015613265578251815291830191600191909101908301613246565b5050508301516080606084015261327f60a084018261315c565b90506040840151601f1984830301608085015261329c828261315c565b95945050505050565b600067ffffffffffffffff8211156132bf576132bf612cca565b5060051b60200190565b600082601f8301126132da57600080fd5b813560206132ef6132ea836132a5565b612d45565b82815260059290921b8401810191818101908684111561330e57600080fd5b8286015b848110156133295780358352918301918301613312565b509695505050505050565b6000602080838503121561334757600080fd5b823567ffffffffffffffff8082111561335f57600080fd5b818501915085601f83011261337357600080fd5b81356133816132ea826132a5565b81815260059190911b830184019084810190888311156133a057600080fd5b8585015b8381101561347f578035858111156133bc5760008081fd5b86016080818c03601f19018113156133d45760008081fd5b6133dc612cf9565b8c603f8401126133ec5760008081fd5b6133f4612d22565b80606085018f8111156134075760008081fd5b8c86015b818110156134225780358452928d01928d0161340b565b50908352359050888111156134375760008081fd5b6134458e8c838701016132c9565b828c01525090820135908782111561345d5760008081fd5b61346b8d8b848601016132c9565b6040820152855250509186019186016133a4565b5098975050505050505050565b6000806000606084860312156134a157600080fd5b505081359360208301359350604090920135919050565b600080604083850312156134cb57600080fd5b6134d483612c34565b9150612f07602084016131df565b600080600080608085870312156134f857600080fd5b61350185612c34565b9350602085013592506040850135915061351d606086016131df565b905092959194509250565b6020810160058310613563577f4e487b7100000000000000000000000000000000000000000000000000000000600052602160045260246000fd5b91905290565b60008060006060848603121561357e57600080fd5b83359250602084013591506131d6604085016131df565b60008060008060008060a087890312156135ae57600080fd5b6135b787612c34565b95506135c560208801612c34565b94506040870135935060608701359250608087013567ffffffffffffffff8111156135ef57600080fd5b6135fb89828a01612fd1565b979a9699509497509295939492505050565b7f4e487b7100000000000000000000000000000000000000000000000000000000600052601160045260246000fd5b60008282101561364e5761364e61360d565b500390565b600082198211156136665761366661360d565b500190565b600181811c9082168061367f57607f821691505b602082108103611bb8577f4e487b7100000000000000000000000000000000000000000000000000000000600052602260045260246000fd5b601f821115610bc357600081815260208120601f850160051c810160208610156136df5750805b601f850160051c820191505b818110156124fd578281556001016136eb565b815167ffffffffffffffff81111561371857613718612cca565b61372c81613726845461366b565b846136b8565b602080601f83116001811461377f57600084156137495750858301515b7fffffffffffffffffffffffffffffffffffffffffffffffffffffffffffffffff600386901b1c1916600185901b1785556124fd565b600085815260208120601f198616915b828110156137ae5788860151825594840194600190910190840161378f565b50858210156137ea57878501517fffffffffffffffffffffffffffffffffffffffffffffffffffffffffffffffff600388901b60f8161c191681555b5050505050600190811b01905550565b6000815161380c818560208601612e24565b9290920192915050565b60008085546138248161366b565b6001828116801561383c576001811461386f5761389e565b7fffffffffffffffffffffffffffffffffffffffffffffffffffffffffffffff008416875282151583028701945061389e565b8960005260208060002060005b858110156138955781548a82015290840190820161387c565b50505082870194505b507f2f000000000000000000000000000000000000000000000000000000000000008452875192506138d68382860160208b01612e24565b928201926139058185017f2f000000000000000000000000000000000000000000000000000000000000009052565b50505061391560028201856137fa565b7f2e6a736f6e00000000000000000000000000000000000000000000000000000081526005019695505050505050565b60007fffffffffffffffffffffffffffffffffffffffffffffffffffffffffffffffff82036139765761397661360d565b5060010190565b7f4e487b7100000000000000000000000000000000000000000000000000000000600052603260045260246000fd5b81835260007f07ffffffffffffffffffffffffffffffffffffffffffffffffffffffffffffff8311156139de57600080fd5b8260051b8083602087013760009401602001938452509192915050565b604081526000613a0f6040830186886139ac565b8281036020840152613a228185876139ac565b979650505050505050565b818352818160208501375060006020828401015260006020601f19601f840116840101905092915050565b60006001600160a01b03808b168352808a1660208401525060a06040830152613a8560a08301888a6139ac565b8281036060840152613a988187896139ac565b90508281036080840152613aad818587613a2d565b9b9a5050505050505050505050565b600060208284031215613ace57600080fd5b8151612cc381612c75565b7f4e487b7100000000000000000000000000000000000000000000000000000000600052601260045260246000fd5b600082613b1757613b17613ad9565b500690565b60006001600160a01b03808916835280881660208401525085604083015284606083015260a06080830152613b5560a083018486613a2d565b98975050505050505050565b600082613b7057613b70613ad9565b500490565b60006001600160a01b03808816835280871660208401525084604083015283606083015260a06080830152613a2260a0830184612e50565b604081526000613bc0604083018561315c565b828103602084015261329c818561315c565b60006001600160a01b03808816835280871660208401525060a06040830152613bfe60a083018661315c565b8281036060840152613c10818661315c565b90508281036080840152613b558185612e5056fea2646970667358221220e4a245cabd0f4d655671bb41c059b51a467d608d2280070d9eee953ecece193964736f6c634300080f003368747470733a2f2f6d61747269782d6d657461646174612d7365727665722e7a6565742d6d61747269782e7a6565742e617070",
    "linkReferences": {}
  },
  "methodIdentifiers": {
    "CREATOR_TOKEN_ID()": "7f13aadc",
    "INVALID_STARTING_ID()": "30594879",
    "LOOTBOX_STARTING_ID()": "6cad184b",
    "PREMIUM_PASS_STARTING_ID()": "78b00d38",
    "REDEEMABLE_STARTING_ID()": "00021454",
    "SPECIAL_STARTING_ID()": "52f43e9b",
    "addReward(uint256,uint256,bool,uint256,uint256)": "6d656a2f",
    "balanceOf(address,uint256)": "00fdd58e",
    "balanceOfBatch(address[],uint256[])": "4e1273f4",
    "burn(address,uint256,uint256)": "f5298aca",
    "calculateRandom(uint256)": "950aca56",
    "checkType(uint256)": "c660005b",
    "claimReward(uint256,uint256,bool)": "ca638cb8",
    "crafting()": "91f1cf05",
    "creatorId()": "e58324ea",
    "delegate(address,uint256)": "026e402b",
    "delegatedBy(address,address)": "22ab96b7",
    "delegatedTotal(address)": "b8b96a68",
    "getLootboxOptionByIdx(uint256,uint256)": "77cffeb8",
    "getLootboxOptionsLength(uint256)": "cde23474",
    "getMaxLevel(uint256)": "94f568dd",
    "giveXp(uint256,uint256,address)": "5a50b3e5",
    "isApprovedForAll(address,address)": "e985e9c5",
    "isRewardClaimed(address,uint256,uint256,bool)": "c089da25",
    "isTrustedForwarder(address)": "572b6c05",
    "isUserPremium(address,uint256)": "d2409af0",
    "level(address,uint256)": "909c86e3",
    "lootboxId()": "a76bfa65",
    "mint(address,uint256,uint256)": "156e29f6",
    "newLootbox((uint256[2],uint256[],uint256[])[])": "84a21a40",
    "newSeason((uint256,uint256,uint256,uint256,uint256)[])": "2a378afa",
    "openLootbox(uint256)": "7ff48190",
    "owner()": "8da5cb5b",
    "safeBatchTransferFrom(address,address,uint256[],uint256[],bytes)": "2eb2c2d6",
    "safeTransferFrom(address,address,uint256,uint256,bytes)": "f242432a",
    "seasonId()": "04922960",
    "seasonInfo(uint256,uint256)": "3f6bf326",
    "setApprovalForAll(address,bool)": "a22cb465",
    "setCrafting(address)": "4fb9d2cb",
    "setOwner(address)": "13af4035",
    "setURI(string)": "02fe5305",
    "setXp(uint256,uint256,uint256)": "978f6d6c",
    "supportsInterface(bytes4)": "01ffc9a7",
    "tokenURI()": "3c130d90",
    "undelegate(address,uint256)": "4d99dd16",
    "uri(uint256)": "0e89341c",
    "userInfo(address,uint256)": "21ce919d"
  },
  "userdoc": {
    "version": 1,
    "kind": "user",
    "methods": {
      "addReward(uint256,uint256,bool,uint256,uint256)": {
        "notice": "sets a reward for a seasonId and at level"
      },
      "burn(address,uint256,uint256)": {
        "notice": "allows the owner/crafting contract to burn tokens"
      },
      "calculateRandom(uint256)": {
        "notice": "calculates a pseudorandom index between 0-99"
      },
      "checkType(uint256)": {
        "notice": "checks a reward type by id; will revert for 0"
      },
      "claimReward(uint256,uint256,bool)": {
        "notice": "claims a reward for a seasonId and at level"
      },
      "delegate(address,uint256)": {
        "notice": "delegates msg.sender's tokens to a delegatee"
      },
      "delegatedBy(address,address)": {
        "notice": "tracks who delegates to whom and how much"
      },
      "getLootboxOptionByIdx(uint256,uint256)": {
        "notice": "gets a lootboxOption by lootboxId and index"
      },
      "getLootboxOptionsLength(uint256)": {
        "notice": "gets a lootboxOptions length by lootboxId"
      },
      "getMaxLevel(uint256)": {
        "notice": "gets the max level for a seasonId"
      },
      "giveXp(uint256,uint256,address)": {
        "notice": "gives xp to a user upon completion of quests"
      },
      "isRewardClaimed(address,uint256,uint256,bool)": {
        "notice": "checks a user claim status on a reward for a seasonId and at level"
      },
      "isUserPremium(address,uint256)": {
        "notice": "checks if a user has premium pass"
      },
      "level(address,uint256)": {
        "notice": "gets user level for a seasonId"
      },
      "mint(address,uint256,uint256)": {
        "notice": "allows the owner/crafting contract to mint tokens"
      },
      "newLootbox((uint256[2],uint256[],uint256[])[])": {
        "notice": "creates a new lootbox"
      },
      "newSeason((uint256,uint256,uint256,uint256,uint256)[])": {
        "notice": "creates a new season"
      },
      "openLootbox(uint256)": {
        "notice": "opens a lootbox"
      },
      "setCrafting(address)": {
        "notice": "sets the crafting proxy address"
      },
      "setURI(string)": {
        "notice": "sets the uri"
      },
      "setXp(uint256,uint256,uint256)": {
        "notice": "sets required xp to levelup"
      },
      "undelegate(address,uint256)": {
        "notice": "undelegates the tokens from a delegatee"
      },
      "uri(uint256)": {
        "notice": "returns uri by id"
      }
    },
    "notice": "Battle Pass is a system that rewards users for completing creator specific quests during established time periods known as seasons Each creator gets 1 unique Battle Pass and the contract allows multiple seasons Tracks user progress at each level and across seasons Allows for giving out rewards at specified levels Rewards can be { NFTs, Tokens, Lootboxes, Redeemables }"
  },
  "devdoc": {
    "version": 1,
    "kind": "dev",
    "author": "rayquaza7",
    "methods": {
      "addReward(uint256,uint256,bool,uint256,uint256)": {
        "details": "only owner can set rewards",
        "params": {
          "_level": "level at which to change the reward",
          "_seasonId": "seasonId for which to change the reward",
          "id": "new reward id",
          "premium": "true when setting a premium reward",
          "qty": "new reward qty"
        }
      },
      "burn(address,uint256,uint256)": {
        "params": {
          "amount": "burn amount",
          "id": "burn id",
          "to": "burn from address"
        }
      },
      "claimReward(uint256,uint256,bool)": {
        "details": "reverts when: user claims a reward for a level at which they are NOT user claims an already claimed reward user claims a premium reward, but is NOT eligible for it when a user has a premium pass and it is their first time claiming a premium reward then burn 1 pass from their balance and set claimedPremiumPass to be true a user can own multiple premium passes just like any other reward it will NOT be burned if the user has already claimed a premium reward",
        "params": {
          "_level": "level at which to claim the reward",
          "_seasonId": "seasonId for which to claim the reward",
          "premium": "true when claiming a premium reward"
        }
      },
      "constructor": {
        "details": "crafting is allowed to mint burn tokens in battle pass"
      },
      "delegate(address,uint256)": {
        "details": "revert if balance is insufficient",
        "params": {
          "amount": "the amount of tokens to delegate",
          "delegatee": "the address receiving the delegated tokens"
        }
      },
      "getMaxLevel(uint256)": {
        "details": "max level is reached when xpToCompleteLevel == 0"
      },
      "giveXp(uint256,uint256,address)": {
        "details": "only owner can give xp",
        "params": {
          "_seasonId": "seasonId for which to give xp",
          "user": "user to give xp to",
          "xp": "amount of xp to give"
        }
      },
      "isRewardClaimed(address,uint256,uint256,bool)": {
        "params": {
          "_level": "level at which to check",
          "_seasonId": "seasonId for which to check",
          "premium": "true when checking for premium rewards",
          "user": "user address for which to check"
        },
        "returns": {
          "_0": "true when reward is claimed"
        }
      },
      "isUserPremium(address,uint256)": {
        "details": "user is considered premium when:     they own one premium pass or     they have already claimed a premium reward",
        "params": {
          "_seasonId": "seasonId for which to check for premium pass",
          "user": "user address"
        },
        "returns": {
          "_0": "true when user has premium status"
        }
      },
      "level(address,uint256)": {
        "details": "breaks at the last level, where xpToCompleteLevel is 0",
        "params": {
          "_seasonId": "seasonId for which to get level",
          "user": "user address for which to get level"
        },
        "returns": {
          "userLevel": "current user level"
        }
      },
      "mint(address,uint256,uint256)": {
        "params": {
          "amount": "mint amount",
          "id": "mint id",
          "to": "mint to address"
        }
      },
      "newLootbox((uint256[2],uint256[],uint256[])[])": {
        "details": "reverts when: joint rarity of all LootboxOptions does not add up to 100 ids.length != qtys.length ids are invalid",
        "params": {
          "options": "all the LootboxOptions avaliable in a lootbox"
        },
        "returns": {
          "_0": "new lootboxId"
        }
      },
      "newSeason((uint256,uint256,uint256,uint256,uint256)[])": {
        "details": "only owner can call it",
        "params": {
          "levelInfo": "info about each level, levelInfo[0] corresponds to info on a level 0 last level must be (levelInfo.length - 1) and must have xpToCompleteLevel == 0"
        },
        "returns": {
          "_0": "current active seasonId"
        }
      },
      "openLootbox(uint256)": {
        "details": "upto user to not send a bad id here.",
        "params": {
          "id": "lootboxId to open"
        }
      },
      "setCrafting(address)": {
        "details": "only owner can set it",
        "params": {
          "_crafting": "new address"
        }
      },
      "setURI(string)": {
        "details": "only owner can set it",
        "params": {
          "_uri": "new string with the format https://<>/creatorId/id.json"
        }
      },
      "setXp(uint256,uint256,uint256)": {
        "params": {
          "_level": "level at which to change xp",
          "_seasonId": "seasonId for which to change xp",
          "xp": "new xp required to levelup"
        }
      },
      "undelegate(address,uint256)": {
        "details": "revert if msg.sender tries to undelegate more tokens than they delegated",
        "params": {
          "amount": "the amount of tokens to undelegate",
          "delegatee": "the address who recevied the delegated tokens"
        }
      },
      "uri(uint256)": {
        "returns": {
          "_0": "string with the format ipfs://<uri>/id.json"
        }
      }
    },
    "errors": {
      "IncorrectLootboxOptions()": [
        {
          "details": "used when the details for a new lootbox are incorrect"
        }
      ],
      "IncorrectSeasonDetails()": [
        {
          "details": "use when an error occurrs while creating a new season"
        }
      ],
      "InvalidId(uint256)": [
        {
          "details": "used when an id is not within any of the approved id ranges"
        }
      ],
      "LOLHowDidYouGetHere(uint256)": [
        {
          "details": "pls dont get here"
        }
      ],
      "NeedPremiumPassToClaimPremiumReward()": [
        {
          "details": "use when user claims a premium reward without owning a premium pass or claimedPremiumPass is false"
        }
      ],
      "NoAccess()": [
        {
          "details": "used when a non owner/crafting address tries to mint/burn"
        }
      ],
      "NotAtLevelNeededToClaimReward()": [
        {
          "details": "use when user claims a reward for a level at which they are NOT"
        }
      ],
      "RewardAlreadyClaimed()": [
        {
          "details": "use when user claims an already claimed reward"
        }
      ]
    },
    "title": "A Battle Pass"
  },
  "id": 16
}