{
  "abi": [
    {
      "inputs": [
        {
          "internalType": "uint256",
          "name": "creatorId",
          "type": "uint256"
        },
        {
          "internalType": "address",
          "name": "crafting",
          "type": "address"
        },
        {
          "internalType": "address",
          "name": "owner",
          "type": "address"
        }
      ],
      "stateMutability": "nonpayable",
      "type": "constructor"
    },
    {
      "inputs": [],
      "name": "IncorrectLootboxOptions",
      "type": "error"
    },
    {
      "inputs": [],
      "name": "IncorrectSeasonDetails",
      "type": "error"
    },
    {
      "inputs": [
        {
          "internalType": "uint256",
          "name": "id",
          "type": "uint256"
        }
      ],
      "name": "InvalidId",
      "type": "error"
    },
    {
      "inputs": [
        {
          "internalType": "uint256",
          "name": "lootboxId",
          "type": "uint256"
        }
      ],
      "name": "LOLHowDidYouGetHere",
      "type": "error"
    },
    {
      "inputs": [],
      "name": "NeedPremiumPassToClaimPremiumReward",
      "type": "error"
    },
    {
      "inputs": [],
      "name": "NoAccess",
      "type": "error"
    },
    {
      "inputs": [],
      "name": "NotAtLevelNeededToClaimReward",
      "type": "error"
    },
    {
      "inputs": [],
      "name": "RewardAlreadyClaimed",
      "type": "error"
    },
    {
      "anonymous": false,
      "inputs": [
        {
          "indexed": true,
          "internalType": "address",
          "name": "owner",
          "type": "address"
        },
        {
          "indexed": true,
          "internalType": "address",
          "name": "operator",
          "type": "address"
        },
        {
          "indexed": false,
          "internalType": "bool",
          "name": "approved",
          "type": "bool"
        }
      ],
      "name": "ApprovalForAll",
      "type": "event"
    },
    {
      "anonymous": false,
      "inputs": [
        {
          "indexed": true,
          "internalType": "address",
          "name": "delegator",
          "type": "address"
        },
        {
          "indexed": true,
          "internalType": "address",
          "name": "delegatee",
          "type": "address"
        },
        {
          "indexed": true,
          "internalType": "uint256",
          "name": "amount",
          "type": "uint256"
        }
      ],
      "name": "Delegated",
      "type": "event"
    },
    {
      "anonymous": false,
      "inputs": [
        {
          "indexed": true,
          "internalType": "uint256",
          "name": "lootboxId",
          "type": "uint256"
        },
        {
          "indexed": true,
          "internalType": "uint256",
          "name": "idxOpened",
          "type": "uint256"
        },
        {
          "indexed": true,
          "internalType": "address",
          "name": "user",
          "type": "address"
        }
      ],
      "name": "LootboxOpened",
      "type": "event"
    },
    {
      "anonymous": false,
      "inputs": [
        {
          "indexed": true,
          "internalType": "address",
          "name": "user",
          "type": "address"
        },
        {
          "indexed": true,
          "internalType": "address",
          "name": "newOwner",
          "type": "address"
        }
      ],
      "name": "OwnerUpdated",
      "type": "event"
    },
    {
      "anonymous": false,
      "inputs": [
        {
          "indexed": true,
          "internalType": "address",
          "name": "operator",
          "type": "address"
        },
        {
          "indexed": true,
          "internalType": "address",
          "name": "from",
          "type": "address"
        },
        {
          "indexed": true,
          "internalType": "address",
          "name": "to",
          "type": "address"
        },
        {
          "indexed": false,
          "internalType": "uint256[]",
          "name": "ids",
          "type": "uint256[]"
        },
        {
          "indexed": false,
          "internalType": "uint256[]",
          "name": "amounts",
          "type": "uint256[]"
        }
      ],
      "name": "TransferBatch",
      "type": "event"
    },
    {
      "anonymous": false,
      "inputs": [
        {
          "indexed": true,
          "internalType": "address",
          "name": "operator",
          "type": "address"
        },
        {
          "indexed": true,
          "internalType": "address",
          "name": "from",
          "type": "address"
        },
        {
          "indexed": true,
          "internalType": "address",
          "name": "to",
          "type": "address"
        },
        {
          "indexed": false,
          "internalType": "uint256",
          "name": "id",
          "type": "uint256"
        },
        {
          "indexed": false,
          "internalType": "uint256",
          "name": "amount",
          "type": "uint256"
        }
      ],
      "name": "TransferSingle",
      "type": "event"
    },
    {
      "anonymous": false,
      "inputs": [
        {
          "indexed": false,
          "internalType": "string",
          "name": "value",
          "type": "string"
        },
        {
          "indexed": true,
          "internalType": "uint256",
          "name": "id",
          "type": "uint256"
        }
      ],
      "name": "URI",
      "type": "event"
    },
    {
      "anonymous": false,
      "inputs": [
        {
          "indexed": true,
          "internalType": "address",
          "name": "delegator",
          "type": "address"
        },
        {
          "indexed": true,
          "internalType": "address",
          "name": "delegatee",
          "type": "address"
        },
        {
          "indexed": true,
          "internalType": "uint256",
          "name": "amount",
          "type": "uint256"
        }
      ],
      "name": "Undelegated",
      "type": "event"
    },
    {
      "inputs": [],
      "name": "CREATOR_TOKEN_ID",
      "outputs": [
        {
          "internalType": "uint256",
          "name": "",
          "type": "uint256"
        }
      ],
      "stateMutability": "view",
      "type": "function"
    },
    {
      "inputs": [],
      "name": "INVALID_STARTING_ID",
      "outputs": [
        {
          "internalType": "uint256",
          "name": "",
          "type": "uint256"
        }
      ],
      "stateMutability": "view",
      "type": "function"
    },
    {
      "inputs": [],
      "name": "LOOTBOX_STARTING_ID",
      "outputs": [
        {
          "internalType": "uint256",
          "name": "",
          "type": "uint256"
        }
      ],
      "stateMutability": "view",
      "type": "function"
    },
    {
      "inputs": [],
      "name": "PREMIUM_PASS_STARTING_ID",
      "outputs": [
        {
          "internalType": "uint256",
          "name": "",
          "type": "uint256"
        }
      ],
      "stateMutability": "view",
      "type": "function"
    },
    {
      "inputs": [],
      "name": "REDEEMABLE_STARTING_ID",
      "outputs": [
        {
          "internalType": "uint256",
          "name": "",
          "type": "uint256"
        }
      ],
      "stateMutability": "view",
      "type": "function"
    },
    {
      "inputs": [],
      "name": "SPECIAL_STARTING_ID",
      "outputs": [
        {
          "internalType": "uint256",
          "name": "",
          "type": "uint256"
        }
      ],
      "stateMutability": "view",
      "type": "function"
    },
    {
      "inputs": [
        {
          "internalType": "uint256",
          "name": "_seasonId",
          "type": "uint256"
        },
        {
          "internalType": "uint256",
          "name": "_level",
          "type": "uint256"
        },
        {
          "internalType": "bool",
          "name": "premium",
          "type": "bool"
        },
        {
          "internalType": "uint256",
          "name": "id",
          "type": "uint256"
        },
        {
          "internalType": "uint256",
          "name": "qty",
          "type": "uint256"
        }
      ],
      "name": "addReward",
      "outputs": [],
      "stateMutability": "nonpayable",
      "type": "function"
    },
    {
      "inputs": [
        {
          "internalType": "address",
          "name": "",
          "type": "address"
        },
        {
          "internalType": "uint256",
          "name": "",
          "type": "uint256"
        }
      ],
      "name": "balanceOf",
      "outputs": [
        {
          "internalType": "uint256",
          "name": "",
          "type": "uint256"
        }
      ],
      "stateMutability": "view",
      "type": "function"
    },
    {
      "inputs": [
        {
          "internalType": "address[]",
          "name": "owners",
          "type": "address[]"
        },
        {
          "internalType": "uint256[]",
          "name": "ids",
          "type": "uint256[]"
        }
      ],
      "name": "balanceOfBatch",
      "outputs": [
        {
          "internalType": "uint256[]",
          "name": "balances",
          "type": "uint256[]"
        }
      ],
      "stateMutability": "view",
      "type": "function"
    },
    {
      "inputs": [
        {
          "internalType": "address",
          "name": "to",
          "type": "address"
        },
        {
          "internalType": "uint256",
          "name": "id",
          "type": "uint256"
        },
        {
          "internalType": "uint256",
          "name": "amount",
          "type": "uint256"
        }
      ],
      "name": "burn",
      "outputs": [],
      "stateMutability": "nonpayable",
      "type": "function"
    },
    {
      "inputs": [
        {
          "internalType": "uint256",
          "name": "id",
          "type": "uint256"
        }
      ],
      "name": "calculateRandom",
      "outputs": [
        {
          "internalType": "uint256",
          "name": "",
          "type": "uint256"
        }
      ],
      "stateMutability": "view",
      "type": "function"
    },
    {
      "inputs": [
        {
          "internalType": "uint256",
          "name": "id",
          "type": "uint256"
        }
      ],
      "name": "checkType",
      "outputs": [
        {
          "internalType": "enum RewardType",
          "name": "",
          "type": "uint8"
        }
      ],
      "stateMutability": "pure",
      "type": "function"
    },
    {
      "inputs": [
        {
          "internalType": "uint256",
          "name": "_seasonId",
          "type": "uint256"
        },
        {
          "internalType": "uint256",
          "name": "_level",
          "type": "uint256"
        },
        {
          "internalType": "bool",
          "name": "premium",
          "type": "bool"
        }
      ],
      "name": "claimReward",
      "outputs": [],
      "stateMutability": "nonpayable",
      "type": "function"
    },
    {
      "inputs": [
        {
          "internalType": "uint256",
          "name": "_seasonId",
          "type": "uint256"
        },
        {
          "internalType": "uint256",
          "name": "_level",
          "type": "uint256"
        },
        {
          "internalType": "bool",
          "name": "premium",
          "type": "bool"
        }
      ],
      "name": "claimRewardAtomic",
      "outputs": [
        {
          "internalType": "uint256",
          "name": "",
          "type": "uint256"
        }
      ],
      "stateMutability": "nonpayable",
      "type": "function"
    },
    {
      "inputs": [],
      "name": "crafting",
      "outputs": [
        {
          "internalType": "address",
          "name": "",
          "type": "address"
        }
      ],
      "stateMutability": "view",
      "type": "function"
    },
    {
      "inputs": [],
      "name": "creatorId",
      "outputs": [
        {
          "internalType": "uint256",
          "name": "",
          "type": "uint256"
        }
      ],
      "stateMutability": "view",
      "type": "function"
    },
    {
      "inputs": [
        {
          "internalType": "address",
          "name": "delegatee",
          "type": "address"
        },
        {
          "internalType": "uint256",
          "name": "amount",
          "type": "uint256"
        }
      ],
      "name": "delegate",
      "outputs": [],
      "stateMutability": "nonpayable",
      "type": "function"
    },
    {
      "inputs": [
        {
          "internalType": "address",
          "name": "",
          "type": "address"
        },
        {
          "internalType": "address",
          "name": "",
          "type": "address"
        }
      ],
      "name": "delegatedBy",
      "outputs": [
        {
          "internalType": "uint256",
          "name": "",
          "type": "uint256"
        }
      ],
      "stateMutability": "view",
      "type": "function"
    },
    {
      "inputs": [
        {
          "internalType": "address",
          "name": "",
          "type": "address"
        }
      ],
      "name": "delegatedTotal",
      "outputs": [
        {
          "internalType": "uint256",
          "name": "",
          "type": "uint256"
        }
      ],
      "stateMutability": "view",
      "type": "function"
    },
    {
      "inputs": [
        {
          "internalType": "uint256",
          "name": "id",
          "type": "uint256"
        },
        {
          "internalType": "uint256",
          "name": "idx",
          "type": "uint256"
        }
      ],
      "name": "getLootboxOptionByIdx",
      "outputs": [
        {
          "components": [
            {
              "internalType": "uint256[2]",
              "name": "rarityRange",
              "type": "uint256[2]"
            },
            {
              "internalType": "uint256[]",
              "name": "ids",
              "type": "uint256[]"
            },
            {
              "internalType": "uint256[]",
              "name": "qtys",
              "type": "uint256[]"
            }
          ],
          "internalType": "struct LootboxOption",
          "name": "option",
          "type": "tuple"
        }
      ],
      "stateMutability": "view",
      "type": "function"
    },
    {
      "inputs": [
        {
          "internalType": "uint256",
          "name": "id",
          "type": "uint256"
        }
      ],
      "name": "getLootboxOptionsLength",
      "outputs": [
        {
          "internalType": "uint256",
          "name": "",
          "type": "uint256"
        }
      ],
      "stateMutability": "view",
      "type": "function"
    },
    {
      "inputs": [
        {
          "internalType": "uint256",
          "name": "_seasonId",
          "type": "uint256"
        }
      ],
      "name": "getMaxLevel",
      "outputs": [
        {
          "internalType": "uint256",
          "name": "maxLevel",
          "type": "uint256"
        }
      ],
      "stateMutability": "view",
      "type": "function"
    },
    {
      "inputs": [
        {
          "internalType": "uint256",
          "name": "_seasonId",
          "type": "uint256"
        },
        {
          "internalType": "uint256",
          "name": "xp",
          "type": "uint256"
        },
        {
          "internalType": "address",
          "name": "user",
          "type": "address"
        }
      ],
      "name": "giveXp",
      "outputs": [],
      "stateMutability": "nonpayable",
      "type": "function"
    },
    {
      "inputs": [
        {
          "internalType": "address",
          "name": "",
          "type": "address"
        },
        {
          "internalType": "address",
          "name": "",
          "type": "address"
        }
      ],
      "name": "isApprovedForAll",
      "outputs": [
        {
          "internalType": "bool",
          "name": "",
          "type": "bool"
        }
      ],
      "stateMutability": "view",
      "type": "function"
    },
    {
      "inputs": [
        {
          "internalType": "address",
          "name": "user",
          "type": "address"
        },
        {
          "internalType": "uint256",
          "name": "_seasonId",
          "type": "uint256"
        },
        {
          "internalType": "uint256",
          "name": "_level",
          "type": "uint256"
        },
        {
          "internalType": "bool",
          "name": "premium",
          "type": "bool"
        }
      ],
      "name": "isRewardClaimed",
      "outputs": [
        {
          "internalType": "bool",
          "name": "",
          "type": "bool"
        }
      ],
      "stateMutability": "view",
      "type": "function"
    },
    {
      "inputs": [
        {
          "internalType": "address",
          "name": "forwarder",
          "type": "address"
        }
      ],
      "name": "isTrustedForwarder",
      "outputs": [
        {
          "internalType": "bool",
          "name": "",
          "type": "bool"
        }
      ],
      "stateMutability": "view",
      "type": "function"
    },
    {
      "inputs": [
        {
          "internalType": "address",
          "name": "user",
          "type": "address"
        },
        {
          "internalType": "uint256",
          "name": "_seasonId",
          "type": "uint256"
        }
      ],
      "name": "isUserPremium",
      "outputs": [
        {
          "internalType": "bool",
          "name": "",
          "type": "bool"
        }
      ],
      "stateMutability": "view",
      "type": "function"
    },
    {
      "inputs": [
        {
          "internalType": "address",
          "name": "user",
          "type": "address"
        },
        {
          "internalType": "uint256",
          "name": "_seasonId",
          "type": "uint256"
        }
      ],
      "name": "level",
      "outputs": [
        {
          "internalType": "uint256",
          "name": "userLevel",
          "type": "uint256"
        }
      ],
      "stateMutability": "view",
      "type": "function"
    },
    {
      "inputs": [],
      "name": "lootboxId",
      "outputs": [
        {
          "internalType": "uint256",
          "name": "",
          "type": "uint256"
        }
      ],
      "stateMutability": "view",
      "type": "function"
    },
    {
      "inputs": [
        {
          "internalType": "address",
          "name": "to",
          "type": "address"
        },
        {
          "internalType": "uint256",
          "name": "id",
          "type": "uint256"
        },
        {
          "internalType": "uint256",
          "name": "amount",
          "type": "uint256"
        }
      ],
      "name": "mint",
      "outputs": [],
      "stateMutability": "nonpayable",
      "type": "function"
    },
    {
      "inputs": [
        {
          "components": [
            {
              "internalType": "uint256[2]",
              "name": "rarityRange",
              "type": "uint256[2]"
            },
            {
              "internalType": "uint256[]",
              "name": "ids",
              "type": "uint256[]"
            },
            {
              "internalType": "uint256[]",
              "name": "qtys",
              "type": "uint256[]"
            }
          ],
          "internalType": "struct LootboxOption[]",
          "name": "options",
          "type": "tuple[]"
        }
      ],
      "name": "newLootbox",
      "outputs": [
        {
          "internalType": "uint256",
          "name": "",
          "type": "uint256"
        }
      ],
      "stateMutability": "nonpayable",
      "type": "function"
    },
    {
      "inputs": [
        {
          "components": [
            {
              "internalType": "uint256",
              "name": "xpToCompleteLevel",
              "type": "uint256"
            },
            {
              "internalType": "uint256",
              "name": "freeRewardId",
              "type": "uint256"
            },
            {
              "internalType": "uint256",
              "name": "freeRewardQty",
              "type": "uint256"
            },
            {
              "internalType": "uint256",
              "name": "premiumRewardId",
              "type": "uint256"
            },
            {
              "internalType": "uint256",
              "name": "premiumRewardQty",
              "type": "uint256"
            }
          ],
          "internalType": "struct LevelInfo[]",
          "name": "levelInfo",
          "type": "tuple[]"
        }
      ],
      "name": "newSeason",
      "outputs": [
        {
          "internalType": "uint256",
          "name": "",
          "type": "uint256"
        }
      ],
      "stateMutability": "nonpayable",
      "type": "function"
    },
    {
      "inputs": [
        {
          "internalType": "uint256",
          "name": "id",
          "type": "uint256"
        }
      ],
      "name": "openLootbox",
      "outputs": [
        {
          "internalType": "uint256",
          "name": "",
          "type": "uint256"
        }
      ],
      "stateMutability": "nonpayable",
      "type": "function"
    },
    {
      "inputs": [],
      "name": "owner",
      "outputs": [
        {
          "internalType": "address",
          "name": "",
          "type": "address"
        }
      ],
      "stateMutability": "view",
      "type": "function"
    },
    {
      "inputs": [
        {
          "internalType": "address",
          "name": "from",
          "type": "address"
        },
        {
          "internalType": "address",
          "name": "to",
          "type": "address"
        },
        {
          "internalType": "uint256[]",
          "name": "ids",
          "type": "uint256[]"
        },
        {
          "internalType": "uint256[]",
          "name": "amounts",
          "type": "uint256[]"
        },
        {
          "internalType": "bytes",
          "name": "data",
          "type": "bytes"
        }
      ],
      "name": "safeBatchTransferFrom",
      "outputs": [],
      "stateMutability": "nonpayable",
      "type": "function"
    },
    {
      "inputs": [
        {
          "internalType": "address",
          "name": "from",
          "type": "address"
        },
        {
          "internalType": "address",
          "name": "to",
          "type": "address"
        },
        {
          "internalType": "uint256",
          "name": "id",
          "type": "uint256"
        },
        {
          "internalType": "uint256",
          "name": "amount",
          "type": "uint256"
        },
        {
          "internalType": "bytes",
          "name": "data",
          "type": "bytes"
        }
      ],
      "name": "safeTransferFrom",
      "outputs": [],
      "stateMutability": "nonpayable",
      "type": "function"
    },
    {
      "inputs": [],
      "name": "seasonId",
      "outputs": [
        {
          "internalType": "uint256",
          "name": "",
          "type": "uint256"
        }
      ],
      "stateMutability": "view",
      "type": "function"
    },
    {
      "inputs": [
        {
          "internalType": "uint256",
          "name": "",
          "type": "uint256"
        },
        {
          "internalType": "uint256",
          "name": "",
          "type": "uint256"
        }
      ],
      "name": "seasonInfo",
      "outputs": [
        {
          "internalType": "uint256",
          "name": "xpToCompleteLevel",
          "type": "uint256"
        },
        {
          "internalType": "uint256",
          "name": "freeRewardId",
          "type": "uint256"
        },
        {
          "internalType": "uint256",
          "name": "freeRewardQty",
          "type": "uint256"
        },
        {
          "internalType": "uint256",
          "name": "premiumRewardId",
          "type": "uint256"
        },
        {
          "internalType": "uint256",
          "name": "premiumRewardQty",
          "type": "uint256"
        }
      ],
      "stateMutability": "view",
      "type": "function"
    },
    {
      "inputs": [
        {
          "internalType": "address",
          "name": "operator",
          "type": "address"
        },
        {
          "internalType": "bool",
          "name": "approved",
          "type": "bool"
        }
      ],
      "name": "setApprovalForAll",
      "outputs": [],
      "stateMutability": "nonpayable",
      "type": "function"
    },
    {
      "inputs": [
        {
          "internalType": "address",
          "name": "_crafting",
          "type": "address"
        }
      ],
      "name": "setCrafting",
      "outputs": [],
      "stateMutability": "nonpayable",
      "type": "function"
    },
    {
      "inputs": [
        {
          "internalType": "address",
          "name": "newOwner",
          "type": "address"
        }
      ],
      "name": "setOwner",
      "outputs": [],
      "stateMutability": "nonpayable",
      "type": "function"
    },
    {
      "inputs": [
        {
          "internalType": "string",
          "name": "_uri",
          "type": "string"
        }
      ],
      "name": "setURI",
      "outputs": [],
      "stateMutability": "nonpayable",
      "type": "function"
    },
    {
      "inputs": [
        {
          "internalType": "uint256",
          "name": "_seasonId",
          "type": "uint256"
        },
        {
          "internalType": "uint256",
          "name": "_level",
          "type": "uint256"
        },
        {
          "internalType": "uint256",
          "name": "xp",
          "type": "uint256"
        }
      ],
      "name": "setXp",
      "outputs": [],
      "stateMutability": "nonpayable",
      "type": "function"
    },
    {
      "inputs": [
        {
          "internalType": "bytes4",
          "name": "interfaceId",
          "type": "bytes4"
        }
      ],
      "name": "supportsInterface",
      "outputs": [
        {
          "internalType": "bool",
          "name": "",
          "type": "bool"
        }
      ],
      "stateMutability": "view",
      "type": "function"
    },
    {
      "inputs": [],
      "name": "tokenURI",
      "outputs": [
        {
          "internalType": "string",
          "name": "",
          "type": "string"
        }
      ],
      "stateMutability": "view",
      "type": "function"
    },
    {
      "inputs": [
        {
          "internalType": "address",
          "name": "delegatee",
          "type": "address"
        },
        {
          "internalType": "uint256",
          "name": "amount",
          "type": "uint256"
        }
      ],
      "name": "undelegate",
      "outputs": [],
      "stateMutability": "nonpayable",
      "type": "function"
    },
    {
      "inputs": [
        {
          "internalType": "uint256",
          "name": "id",
          "type": "uint256"
        }
      ],
      "name": "uri",
      "outputs": [
        {
          "internalType": "string",
          "name": "",
          "type": "string"
        }
      ],
      "stateMutability": "view",
      "type": "function"
    },
    {
      "inputs": [
        {
          "internalType": "address",
          "name": "",
          "type": "address"
        },
        {
          "internalType": "uint256",
          "name": "",
          "type": "uint256"
        }
      ],
      "name": "userInfo",
      "outputs": [
        {
          "internalType": "uint256",
          "name": "xp",
          "type": "uint256"
        },
        {
          "internalType": "bool",
          "name": "claimedPremiumPass",
          "type": "bool"
        }
      ],
      "stateMutability": "view",
      "type": "function"
    }
  ],
  "bytecode": {
    "object": "0x60c06040526200001360016103e962000100565b6005553480156200002357600080fd5b50604051620041f6380380620041f6833981016040819052620000469162000145565b600280546001600160a01b0319166001600160a01b03831690811790915560405184918491849182918291906000907f8292fce18fa69edf4db7b94ea2e58241df0ae57f97e0a6c9b29067028bf92d76908290a3506001600160a01b031660805260408051606081019091526033808252620041c36020830139600490620000cf90826200022b565b505060a091909152600380546001600160a01b0319166001600160a01b0390921691909117905550620002f7915050565b818103818111156200012257634e487b7160e01b600052601160045260246000fd5b92915050565b80516001600160a01b03811681146200014057600080fd5b919050565b6000806000606084860312156200015b57600080fd5b835192506200016d6020850162000128565b91506200017d6040850162000128565b90509250925092565b634e487b7160e01b600052604160045260246000fd5b600181811c90821680620001b157607f821691505b602082108103620001d257634e487b7160e01b600052602260045260246000fd5b50919050565b601f8211156200022657600081815260208120601f850160051c81016020861015620002015750805b601f850160051c820191505b8181101562000222578281556001016200020d565b5050505b505050565b81516001600160401b0381111562000247576200024762000186565b6200025f816200025884546200019c565b84620001d8565b602080601f8311600181146200029757600084156200027e5750858301515b600019600386901b1c1916600185901b17855562000222565b600085815260208120601f198616915b82811015620002c857888601518255948401946001909101908401620002a7565b5085821015620002e75787850151600019600388901b60f8161c191681555b5050505050600190811b01905550565b60805160a051613e986200032b600039600081816107c80152610a8b01526000818161057c01526127850152613e986000f3fe608060405234801561001057600080fd5b506004361061031e5760003560e01c80636d656a2f116101a7578063a22cb465116100ee578063cde2347411610097578063e985e9c511610071578063e985e9c5146107ea578063f242432a14610818578063f5298aca1461082b57600080fd5b8063cde2347414610790578063d2409af0146107b0578063e58324ea146107c357600080fd5b8063c089da25116100c8578063c089da251461070b578063c660005b1461075d578063ca638cb81461077d57600080fd5b8063a22cb465146106cf578063a76bfa65146106e2578063b8b96a68146106eb57600080fd5b80638da5cb5b1161015057806394f568dd1161012a57806394f568dd14610696578063950aca56146106a9578063978f6d6c146106bc57600080fd5b80638da5cb5b14610645578063909c86e31461067057806391f1cf051461068357600080fd5b80637f13aadc116101815780637f13aadc146106165780637ff481901461061f57806384a21a401461063257600080fd5b80636d656a2f146105db57806377cffeb8146105ee57806378b00d381461060e57600080fd5b80632eb2c2d61161026b5780634fb9d2cb116102145780635a50b3e5116101ee5780635a50b3e5146105ac578063628e6cdd146105bf5780636cad184b146105d257600080fd5b80634fb9d2cb1461055057806352f43e9b14610563578063572b6c051461056c57600080fd5b80633f6bf326116102455780633f6bf326146104ad5780634d99dd161461051d5780634e1273f41461053057600080fd5b80632eb2c2d614610489578063305948791461049c5780633c130d90146104a557600080fd5b80630e89341c116102cd57806321ce919d116102a757806321ce919d1461040157806322ab96b71461044b5780632a378afa1461047657600080fd5b80630e89341c146103bb57806313af4035146103db578063156e29f6146103ee57600080fd5b8063026e402b116102fe578063026e402b1461038a57806302fe53051461039f57806304922960146103b257600080fd5b806202145414610323578062fdd58e1461033f57806301ffc9a714610367575b600080fd5b61032c61271081565b6040519081526020015b60405180910390f35b61032c61034d366004612e94565b600060208181529281526040808220909352908152205481565b61037a610375366004612eef565b61083e565b6040519015158152602001610336565b61039d610398366004612e94565b610923565b005b61039d6103ad366004612fb8565b610a13565b61032c60095481565b6103ce6103c936600461304d565b610a82565b60405161033691906130b6565b61039d6103e93660046130c9565b610ae0565b61039d6103fc3660046130e4565b610b9e565b61043661040f366004612e94565b600b6020908152600092835260408084209091529082529020805460019091015460ff1682565b60408051928352901515602083015201610336565b61032c610459366004613117565b600760209081526000928352604080842090915290825290205481565b61032c61048436600461314a565b610c18565b61039d61049736600461324d565b610e25565b61032c61753081565b6103ce611146565b6104f56104bb366004613308565b600a602090815260009283526040808420909152908252902080546001820154600283015460038401546004909401549293919290919085565b604080519586526020860194909452928401919091526060830152608082015260a001610336565b61039d61052b366004612e94565b6111d4565b61054361053e36600461332a565b6112c4565b60405161033691906133d1565b61039d61055e3660046130c9565b611407565b61032c614e2081565b61037a61057a3660046130c9565b7f00000000000000000000000000000000000000000000000000000000000000006001600160a01b0390811691161490565b61039d6105ba3660046133e4565b61149b565b61032c6105cd366004613429565b611532565b61032c6103e981565b61039d6105e9366004613455565b6117e9565b6106016105fc366004613308565b6118a2565b604051610336919061349c565b61032c600181565b61032c6103e881565b61032c61062d36600461304d565b6119ca565b61032c61064036600461359a565b611b70565b600254610658906001600160a01b031681565b6040516001600160a01b039091168152602001610336565b61032c61067e366004612e94565b611da8565b600354610658906001600160a01b031681565b61032c6106a436600461304d565b611e3c565b61032c6106b736600461304d565b611e93565b61039d6106ca3660046136f2565b6120d4565b61039d6106dd36600461371e565b61214a565b61032c60055481565b61032c6106f93660046130c9565b60086020526000908152604090205481565b61037a610719366004613748565b6001600160a01b0384166000908152600b6020908152604080832086845282528083208584526002018252808320841515845290915290205460ff16949350505050565b61077061076b36600461304d565b6121b6565b60405161033691906137bd565b61039d61078b366004613429565b61227d565b61032c61079e36600461304d565b60009081526006602052604090205490565b61037a6107be366004612e94565b612478565b61032c7f000000000000000000000000000000000000000000000000000000000000000081565b61037a6107f8366004613117565b600160209081526000928352604080842090915290825290205460ff1681565b61039d6108263660046137fe565b6124e4565b61039d6108393660046130e4565b61274e565b60007f01ffc9a7000000000000000000000000000000000000000000000000000000007fffffffff00000000000000000000000000000000000000000000000000000000831614806108d157507fd9b67a26000000000000000000000000000000000000000000000000000000007fffffffff000000000000000000000000000000000000000000000000000000008316145b8061091d57507f0e89341c000000000000000000000000000000000000000000000000000000007fffffffff000000000000000000000000000000000000000000000000000000008316145b92915050565b600061092d612781565b6001600160a01b0381166000908152602081815260408083206103e884529091528120805492935084929091906109659084906138a5565b90915550506001600160a01b038082166000908152600760209081526040808320938716835292905290812080548492906109a19084906138b8565b90915550506001600160a01b038316600090815260086020526040812080548492906109ce9084906138b8565b909155505060405182906001600160a01b0380861691908416907fe5541a6b6103d4fa7e021ed54fad39c66f27a76bd13d374cf6240ae6bd0bb72b90600090a4505050565b6002546001600160a01b03163314610a725760405162461bcd60e51b815260206004820152600c60248201527f554e415554484f52495a4544000000000000000000000000000000000000000060448201526064015b60405180910390fd5b6004610a7e828261395e565b5050565b60606004610aaf7f00000000000000000000000000000000000000000000000000000000000000006127e3565b610ab8846127e3565b604051602001610aca93929190613a76565b6040516020818303038152906040529050919050565b6002546001600160a01b03163314610b3a5760405162461bcd60e51b815260206004820152600c60248201527f554e415554484f52495a454400000000000000000000000000000000000000006044820152606401610a69565b600280547fffffffffffffffffffffffff0000000000000000000000000000000000000000166001600160a01b03831690811790915560405133907f8292fce18fa69edf4db7b94ea2e58241df0ae57f97e0a6c9b29067028bf92d7690600090a350565b6002546001600160a01b0316331480610bc157506003546001600160a01b031633145b15610be657610be183838360405180602001604052806000815250612920565b505050565b6040517f2c1a75e200000000000000000000000000000000000000000000000000000000815260040160405180910390fd5b6002546000906001600160a01b03163314610c755760405162461bcd60e51b815260206004820152600c60248201527f554e415554484f52495a454400000000000000000000000000000000000000006044820152606401610a69565b60098054906000610c8583613b87565b9091555060009050610c986001846138a5565b9050838382818110610cac57610cac613bbf565b905060a0020160000135600014610cef576040517f293f6e5500000000000000000000000000000000000000000000000000000000815260040160405180910390fd5b60005b818111610e1957848482818110610d0b57610d0b613bbf565b6009546000908152600a60209081526040808320878452909152902060a0909102929092013590915550848482818110610d4757610d47613bbf565b905060a0020160200135600014610d9e57610d9e600954826000888886818110610d7357610d73613bbf565b905060a0020160200135898987818110610d8f57610d8f613bbf565b905060a00201604001356117e9565b848482818110610db057610db0613bbf565b905060a0020160600135600014610e0757610e07600954826001888886818110610ddc57610ddc613bbf565b905060a0020160600135898987818110610df857610df8613bbf565b905060a00201608001356117e9565b80610e1181613b87565b915050610cf2565b50506009549392505050565b848314610e745760405162461bcd60e51b815260206004820152600f60248201527f4c454e4754485f4d49534d4154434800000000000000000000000000000000006044820152606401610a69565b336001600160a01b0389161480610eae57506001600160a01b038816600090815260016020908152604080832033845290915290205460ff165b610efa5760405162461bcd60e51b815260206004820152600e60248201527f4e4f545f415554484f52495a45440000000000000000000000000000000000006044820152606401610a69565b60008060005b87811015610fb557888882818110610f1a57610f1a613bbf565b905060200201359250868682818110610f3557610f35613bbf565b6001600160a01b038e1660009081526020818152604080832089845282528220805493909102949094013595508593925090610f729084906138a5565b90915550506001600160a01b038a1660009081526020818152604080832086845290915281208054849290610fa89084906138b8565b9091555050600101610f00565b50886001600160a01b03168a6001600160a01b0316336001600160a01b03167f4a39dc06d4c0dbc64b70af90fd698a233a518aa5d07e595d983b8c0526c8f7fb8b8b8b8b6040516110099493929190613c39565b60405180910390a46001600160a01b0389163b156110e1576040517fbc197c8100000000000000000000000000000000000000000000000000000000808252906001600160a01b038b169063bc197c81906110769033908f908e908e908e908e908e908e90600401613c96565b6020604051808303816000875af1158015611095573d6000803e3d6000fd5b505050506040513d601f19601f820116820180604052508101906110b99190613cfa565b7fffffffff0000000000000000000000000000000000000000000000000000000016146110ee565b6001600160a01b03891615155b61113a5760405162461bcd60e51b815260206004820152601060248201527f554e534146455f524543495049454e54000000000000000000000000000000006044820152606401610a69565b50505050505050505050565b60048054611153906138cb565b80601f016020809104026020016040519081016040528092919081815260200182805461117f906138cb565b80156111cc5780601f106111a1576101008083540402835291602001916111cc565b820191906000526020600020905b8154815290600101906020018083116111af57829003601f168201915b505050505081565b60006111de612781565b6001600160a01b0381166000908152602081815260408083206103e884529091528120805492935084929091906112169084906138b8565b90915550506001600160a01b038082166000908152600760209081526040808320938716835292905290812080548492906112529084906138a5565b90915550506001600160a01b0383166000908152600860205260408120805484929061127f9084906138a5565b909155505060405182906001600160a01b0380861691908416907f4d10bd049775c77bd7f255195afba5088028ecb3c7c277d393ccff7934f2f92c90600090a4505050565b60608382146113155760405162461bcd60e51b815260206004820152600f60248201527f4c454e4754485f4d49534d4154434800000000000000000000000000000000006044820152606401610a69565b8367ffffffffffffffff81111561132e5761132e612f0c565b604051908082528060200260200182016040528015611357578160200160208202803683370190505b50905060005b848110156113fe5760008087878481811061137a5761137a613bbf565b905060200201602081019061138f91906130c9565b6001600160a01b03166001600160a01b0316815260200190815260200160002060008585848181106113c3576113c3613bbf565b905060200201358152602001908152602001600020548282815181106113eb576113eb613bbf565b602090810291909101015260010161135d565b50949350505050565b6002546001600160a01b031633146114615760405162461bcd60e51b815260206004820152600c60248201527f554e415554484f52495a454400000000000000000000000000000000000000006044820152606401610a69565b600380547fffffffffffffffffffffffff0000000000000000000000000000000000000000166001600160a01b0392909216919091179055565b6002546001600160a01b031633146114f55760405162461bcd60e51b815260206004820152600c60248201527f554e415554484f52495a454400000000000000000000000000000000000000006044820152606401610a69565b6001600160a01b0381166000908152600b60209081526040808320868452909152812080548492906115289084906138b8565b9091555050505050565b60008061153d612781565b90508361154a8287611da8565b1015611582576040517f5103c87800000000000000000000000000000000000000000000000000000000815260040160405180910390fd5b6001600160a01b0381166000908152600b60209081526040808320888452825280832087845260028101835281842087151585529092529091205460ff16156115f7576040517fb3f8c0dc00000000000000000000000000000000000000000000000000000000815260040160405180910390fd5b6000858152600282016020908152604080832087158015855292528220805460ff1916600117905581906116e9576000888152600a602090815260408083208a845290915281206003015490036116555760009450505050506117e2565b61165f8489612478565b156116b75750506000868152600a6020908152604080832088845290915290206003810154600490910154600183015460ff166116b2576001838101805460ff1916821790556116b29085908a90612ac9565b611740565b6040517ffb767ea600000000000000000000000000000000000000000000000000000000815260040160405180910390fd5b6000888152600a602090815260408083208a845290915281206001015490036117195760009450505050506117e2565b50506000868152600a60209081526040808320888452909152902060018101546002909101545b600261174b836121b6565b600481111561175c5761175c61378e565b036117905761177c84838360405180602001604052806000815250612920565b611785826119ca565b9450505050506117e2565b600361179b836121b6565b60048111156117ac576117ac61378e565b036117be5760009450505050506117e2565b6117d984838360405180602001604052806000815250612920565b60009450505050505b9392505050565b6002546001600160a01b031633146118435760405162461bcd60e51b815260206004820152600c60248201527f554e415554484f52495a454400000000000000000000000000000000000000006044820152606401610a69565b8215611874576000858152600a6020908152604080832087845290915290206003810183905560040181905561189b565b6000858152600a602090815260408083208784529091529020600181018390556002018190555b5050505050565b6118aa612dab565b60008381526006602052604090208054839081106118ca576118ca613bbf565b600091825260209091206040805160a08101909152916004020181606081018260028282826020028201915b8154815260200190600101908083116118f657505050505081526020016002820180548060200260200160405190810160405280929190818152602001828054801561196157602002820191906000526020600020905b81548152602001906001019080831161194d575b50505050508152602001600382018054806020026020016040519081016040528092919081815260200182805480156119b957602002820191906000526020600020905b8154815260200190600101908083116119a5575b505050505081525050905092915050565b6000806119d5612781565b90506119e381846001612ac9565b60006119ee84611e93565b60008581526006602052604081208054929350909183908110611a1357611a13613bbf565b600091825260209091206040805160a08101909152916004020181606081018260028282826020028201915b815481526020019060010190808311611a3f575050505050815260200160028201805480602002602001604051908101604052809291908181526020018280548015611aaa57602002820191906000526020600020905b815481526020019060010190808311611a96575b5050505050815260200160038201805480602002602001604051908101604052809291908181526020018280548015611b0257602002820191906000526020600020905b815481526020019060010190808311611aee575b5050505050815250509050611b30838260200151836040015160405180602001604052806000815250612b4d565b826001600160a01b031682867ff6cb9a290c1214c48e0f14fdb09468e4057a0e867e57e56aae4d08683765f6ae60405160405180910390a4509392505050565b6002546000906001600160a01b03163314611bcd5760405162461bcd60e51b815260206004820152600c60248201527f554e415554484f52495a454400000000000000000000000000000000000000006044820152606401610a69565b60058054906000611bdd83613b87565b9091555060009050805b8351811015611d6257838181518110611c0257611c02613bbf565b60200260200101516040015151848281518110611c2157611c21613bbf565b6020026020010151602001515114611c65576040517fae5748c500000000000000000000000000000000000000000000000000000000815260040160405180910390fd5b838181518110611c7757611c77613bbf565b602090810291909101015151518451859083908110611c9857611c98613bbf565b602090810291909101810151510151611cb191906138a5565b611cbb90836138b8565b9150600660006005548152602001908152602001600020848281518110611ce457611ce4613bbf565b6020908102919091018101518254600181018455600093845291909220825160049092020190611d179082906002612dd2565b506020828101518051611d309260028501920190612e10565b5060408201518051611d4c916003840191602090910190612e10565b5050508080611d5a90613b87565b915050611be7565b5080606414611d9d576040517fae5748c500000000000000000000000000000000000000000000000000000000815260040160405180910390fd5b50506005545b919050565b600080611db483611e3c565b6001600160a01b0385166000908152600b60209081526040808320878452909152812054919250805b83811015611e32576000868152600a60209081526040808320848452909152902054611e0990836138b8565b9150828211611e325784611e1c81613b87565b9550508080611e2a90613b87565b915050611ddd565b5050505092915050565b6000818152600a602090815260408083208380529091528120545b8015611e8d5781611e6781613b87565b6000858152600a602090815260408083208484529091529020549093509150611e579050565b50919050565b6040805142602082015243409181019190915244606082015260009081906064906080016040516020818303038152906040528051906020012060001c611eda9190613d46565b9050600060066000858152602001908152602001600020805480602002602001604051908101604052809291908181526020016000905b82821015612020576000848152602090206040805160a0810190915290600484020181606081018260028282826020028201915b815481526020019060010190808311611f45575050505050815260200160028201805480602002602001604051908101604052809291908181526020018280548015611fb057602002820191906000526020600020905b815481526020019060010190808311611f9c575b505050505081526020016003820180548060200260200160405190810160405280929190818152602001828054801561200857602002820191906000526020600020905b815481526020019060010190808311611ff4575b50505050508152505081526020019060010190611f11565b50505050905060005b815181101561209e5781818151811061204457612044613bbf565b60209081029190910101515151831080159061207f575081818151811061206d5761206d613bbf565b60209081029190910181015151015183105b1561208c57949350505050565b8061209681613b87565b915050612029565b506040517f48e40aac00000000000000000000000000000000000000000000000000000000815260048101859052602401610a69565b6002546001600160a01b0316331461212e5760405162461bcd60e51b815260206004820152600c60248201527f554e415554484f52495a454400000000000000000000000000000000000000006044820152606401610a69565b6000928352600a60209081526040808520938552929052912055565b3360008181526001602090815260408083206001600160a01b03871680855290835292819020805460ff191686151590811790915590519081529192917f17307eab39ab6107e8899845ad3d59bd9653f200f220920489ca2b5937696c31910160405180910390a35050565b60006103e882036121c957506001919050565b600182101580156121db57506103e882105b156121e857506000919050565b6103e982101580156121fb575061271082105b1561220857506002919050565b612710821015801561221b5750614e2082105b1561222857506003919050565b614e20821015801561223b575061753082105b1561224857506004919050565b6040517fe4a4718200000000000000000000000000000000000000000000000000000000815260048101839052602401610a69565b6000612287612781565b9050826122948286611da8565b10156122cc576040517f5103c87800000000000000000000000000000000000000000000000000000000815260040160405180910390fd5b6001600160a01b0381166000908152600b60209081526040808320878452825280832086845260028101835281842086151585529092529091205460ff1615612341576040517fb3f8c0dc00000000000000000000000000000000000000000000000000000000815260040160405180910390fd5b600084815260028201602090815260408083208615801585529252909120805460ff19166001179055612411576000858152600a602090815260408083208784529091528120600301549003612398575050505050565b6123a28286612478565b156116b757600181015460ff166123cf576001818101805460ff1916821790556123cf9083908790612ac9565b6000858152600a6020908152604080832087845282528083206003810154600490910154825193840190925292825261240c928592909190612920565b61189b565b6000858152600a60209081526040808320878452909152812060010154900361243b575050505050565b6000858152600a6020908152604080832087845282528083206001810154600290910154825193840190925292825261189b928592909190612920565b6001600160a01b0382166000908152600b6020908152604080832084845290915281206001015460ff16806124cf57506001600160a01b038316600090815260208181526040808320858452909152902054600111155b156124dc5750600161091d565b50600061091d565b336001600160a01b038716148061251e57506001600160a01b038616600090815260016020908152604080832033845290915290205460ff165b61256a5760405162461bcd60e51b815260206004820152600e60248201527f4e4f545f415554484f52495a45440000000000000000000000000000000000006044820152606401610a69565b6001600160a01b0386166000908152602081815260408083208784529091528120805485929061259b9084906138a5565b90915550506001600160a01b038516600090815260208181526040808320878452909152812080548592906125d19084906138b8565b909155505060408051858152602081018590526001600160a01b03808816929089169133917fc3d58168c5ae7397731d063d5bbf3d657854427343f4c083240f7aacaa2d0f62910160405180910390a46001600160a01b0385163b156126ed576040517ff23a6e6100000000000000000000000000000000000000000000000000000000808252906001600160a01b0387169063f23a6e61906126829033908b908a908a908a908a90600401613d5a565b6020604051808303816000875af11580156126a1573d6000803e3d6000fd5b505050506040513d601f19601f820116820180604052508101906126c59190613cfa565b7fffffffff0000000000000000000000000000000000000000000000000000000016146126fa565b6001600160a01b03851615155b6127465760405162461bcd60e51b815260206004820152601060248201527f554e534146455f524543495049454e54000000000000000000000000000000006044820152606401610a69565b505050505050565b6002546001600160a01b031633148061277157506003546001600160a01b031633145b15610be657610be1838383612ac9565b60007f00000000000000000000000000000000000000000000000000000000000000006001600160a01b031633036127de57507fffffffffffffffffffffffffffffffffffffffffffffffffffffffffffffffec36013560601c90565b503390565b60608160000361282657505060408051808201909152600181527f3000000000000000000000000000000000000000000000000000000000000000602082015290565b8160005b8115612850578061283a81613b87565b91506128499050600a83613d9f565b915061282a565b60008167ffffffffffffffff81111561286b5761286b612f0c565b6040519080825280601f01601f191660200182016040528015612895576020820181803683370190505b5090505b8415612918576128aa6001836138a5565b91506128b7600a86613d46565b6128c29060306138b8565b60f81b8183815181106128d7576128d7613bbf565b60200101907effffffffffffffffffffffffffffffffffffffffffffffffffffffffffffff1916908160001a905350612911600a86613d9f565b9450612899565b949350505050565b6001600160a01b038416600090815260208181526040808320868452909152812080548492906129519084906138b8565b909155505060408051848152602081018490526001600160a01b0386169160009133917fc3d58168c5ae7397731d063d5bbf3d657854427343f4c083240f7aacaa2d0f62910160405180910390a46001600160a01b0384163b15612a6a576040517ff23a6e6100000000000000000000000000000000000000000000000000000000808252906001600160a01b0386169063f23a6e61906129ff903390600090899089908990600401613db3565b6020604051808303816000875af1158015612a1e573d6000803e3d6000fd5b505050506040513d601f19601f82011682018060405250810190612a429190613cfa565b7fffffffff000000000000000000000000000000000000000000000000000000001614612a77565b6001600160a01b03841615155b612ac35760405162461bcd60e51b815260206004820152601060248201527f554e534146455f524543495049454e54000000000000000000000000000000006044820152606401610a69565b50505050565b6001600160a01b03831660009081526020818152604080832085845290915281208054839290612afa9084906138a5565b909155505060408051838152602081018390526000916001600160a01b0386169133917fc3d58168c5ae7397731d063d5bbf3d657854427343f4c083240f7aacaa2d0f62910160405180910390a4505050565b825182518114612b9f5760405162461bcd60e51b815260206004820152600f60248201527f4c454e4754485f4d49534d4154434800000000000000000000000000000000006044820152606401610a69565b60005b81811015612c2e57838181518110612bbc57612bbc613bbf565b6020026020010151600080886001600160a01b03166001600160a01b031681526020019081526020016000206000878481518110612bfc57612bfc613bbf565b602002602001015181526020019081526020016000206000828254612c2191906138b8565b9091555050600101612ba2565b50846001600160a01b031660006001600160a01b0316336001600160a01b03167f4a39dc06d4c0dbc64b70af90fd698a233a518aa5d07e595d983b8c0526c8f7fb8787604051612c7f929190613deb565b60405180910390a46001600160a01b0385163b15612d52576040517fbc197c8100000000000000000000000000000000000000000000000000000000808252906001600160a01b0387169063bc197c8190612ce79033906000908a908a908a90600401613e10565b6020604051808303816000875af1158015612d06573d6000803e3d6000fd5b505050506040513d601f19601f82011682018060405250810190612d2a9190613cfa565b7fffffffff000000000000000000000000000000000000000000000000000000001614612d5f565b6001600160a01b03851615155b61189b5760405162461bcd60e51b815260206004820152601060248201527f554e534146455f524543495049454e54000000000000000000000000000000006044820152606401610a69565b6040518060600160405280612dbe612e4a565b815260200160608152602001606081525090565b8260028101928215612e00579160200282015b82811115612e00578251825591602001919060010190612de5565b50612e0c929150612e68565b5090565b828054828255906000526020600020908101928215612e005791602002820182811115612e00578251825591602001919060010190612de5565b60405180604001604052806002906020820280368337509192915050565b5b80821115612e0c5760008155600101612e69565b80356001600160a01b0381168114611da357600080fd5b60008060408385031215612ea757600080fd5b612eb083612e7d565b946020939093013593505050565b7fffffffff0000000000000000000000000000000000000000000000000000000081168114612eec57600080fd5b50565b600060208284031215612f0157600080fd5b81356117e281612ebe565b7f4e487b7100000000000000000000000000000000000000000000000000000000600052604160045260246000fd5b6040516060810167ffffffffffffffff81118282101715612f5e57612f5e612f0c565b60405290565b6040805190810167ffffffffffffffff81118282101715612f5e57612f5e612f0c565b604051601f8201601f1916810167ffffffffffffffff81118282101715612fb057612fb0612f0c565b604052919050565b60006020808385031215612fcb57600080fd5b823567ffffffffffffffff80821115612fe357600080fd5b818501915085601f830112612ff757600080fd5b81358181111561300957613009612f0c565b61301b84601f19601f84011601612f87565b9150808252868482850101111561303157600080fd5b8084840185840137600090820190930192909252509392505050565b60006020828403121561305f57600080fd5b5035919050565b60005b83811015613081578181015183820152602001613069565b50506000910152565b600081518084526130a2816020860160208601613066565b601f01601f19169290920160200192915050565b6020815260006117e2602083018461308a565b6000602082840312156130db57600080fd5b6117e282612e7d565b6000806000606084860312156130f957600080fd5b61310284612e7d565b95602085013595506040909401359392505050565b6000806040838503121561312a57600080fd5b61313383612e7d565b915061314160208401612e7d565b90509250929050565b6000806020838503121561315d57600080fd5b823567ffffffffffffffff8082111561317557600080fd5b818501915085601f83011261318957600080fd5b81358181111561319857600080fd5b86602060a0830285010111156131ad57600080fd5b60209290920196919550909350505050565b60008083601f8401126131d157600080fd5b50813567ffffffffffffffff8111156131e957600080fd5b6020830191508360208260051b850101111561320457600080fd5b9250929050565b60008083601f84011261321d57600080fd5b50813567ffffffffffffffff81111561323557600080fd5b60208301915083602082850101111561320457600080fd5b60008060008060008060008060a0898b03121561326957600080fd5b61327289612e7d565b975061328060208a01612e7d565b9650604089013567ffffffffffffffff8082111561329d57600080fd5b6132a98c838d016131bf565b909850965060608b01359150808211156132c257600080fd5b6132ce8c838d016131bf565b909650945060808b01359150808211156132e757600080fd5b506132f48b828c0161320b565b999c989b5096995094979396929594505050565b6000806040838503121561331b57600080fd5b50508035926020909101359150565b6000806000806040858703121561334057600080fd5b843567ffffffffffffffff8082111561335857600080fd5b613364888389016131bf565b9096509450602087013591508082111561337d57600080fd5b5061338a878288016131bf565b95989497509550505050565b600081518084526020808501945080840160005b838110156133c6578151875295820195908201906001016133aa565b509495945050505050565b6020815260006117e26020830184613396565b6000806000606084860312156133f957600080fd5b833592506020840135915061341060408501612e7d565b90509250925092565b80358015158114611da357600080fd5b60008060006060848603121561343e57600080fd5b833592506020840135915061341060408501613419565b600080600080600060a0868803121561346d57600080fd5b853594506020860135935061348460408701613419565b94979396509394606081013594506080013592915050565b6020808252825160009190828483015b60028210156134cb5782518152918301916001919091019083016134ac565b505050830151608060608401526134e560a0840182613396565b90506040840151601f198483030160808501526135028282613396565b95945050505050565b600067ffffffffffffffff82111561352557613525612f0c565b5060051b60200190565b600082601f83011261354057600080fd5b813560206135556135508361350b565b612f87565b82815260059290921b8401810191818101908684111561357457600080fd5b8286015b8481101561358f5780358352918301918301613578565b509695505050505050565b600060208083850312156135ad57600080fd5b823567ffffffffffffffff808211156135c557600080fd5b818501915085601f8301126135d957600080fd5b81356135e76135508261350b565b81815260059190911b8301840190848101908883111561360657600080fd5b8585015b838110156136e5578035858111156136225760008081fd5b86016080818c03601f190181131561363a5760008081fd5b613642612f3b565b8c603f8401126136525760008081fd5b61365a612f64565b80606085018f81111561366d5760008081fd5b8c86015b818110156136885780358452928d01928d01613671565b509083523590508881111561369d5760008081fd5b6136ab8e8c8387010161352f565b828c0152509082013590878211156136c35760008081fd5b6136d18d8b8486010161352f565b60408201528552505091860191860161360a565b5098975050505050505050565b60008060006060848603121561370757600080fd5b505081359360208301359350604090920135919050565b6000806040838503121561373157600080fd5b61373a83612e7d565b915061314160208401613419565b6000806000806080858703121561375e57600080fd5b61376785612e7d565b9350602085013592506040850135915061378360608601613419565b905092959194509250565b7f4e487b7100000000000000000000000000000000000000000000000000000000600052602160045260246000fd5b60208101600583106137f8577f4e487b7100000000000000000000000000000000000000000000000000000000600052602160045260246000fd5b91905290565b60008060008060008060a0878903121561381757600080fd5b61382087612e7d565b955061382e60208801612e7d565b94506040870135935060608701359250608087013567ffffffffffffffff81111561385857600080fd5b61386489828a0161320b565b979a9699509497509295939492505050565b7f4e487b7100000000000000000000000000000000000000000000000000000000600052601160045260246000fd5b8181038181111561091d5761091d613876565b8082018082111561091d5761091d613876565b600181811c908216806138df57607f821691505b602082108103611e8d577f4e487b7100000000000000000000000000000000000000000000000000000000600052602260045260246000fd5b601f821115610be157600081815260208120601f850160051c8101602086101561393f5750805b601f850160051c820191505b818110156127465782815560010161394b565b815167ffffffffffffffff81111561397857613978612f0c565b61398c8161398684546138cb565b84613918565b602080601f8311600181146139df57600084156139a95750858301515b7fffffffffffffffffffffffffffffffffffffffffffffffffffffffffffffffff600386901b1c1916600185901b178555612746565b600085815260208120601f198616915b82811015613a0e578886015182559484019460019091019084016139ef565b5085821015613a4a57878501517fffffffffffffffffffffffffffffffffffffffffffffffffffffffffffffffff600388901b60f8161c191681555b5050505050600190811b01905550565b60008151613a6c818560208601613066565b9290920192915050565b6000808554613a84816138cb565b60018281168015613a9c5760018114613ab157613ae0565b60ff1984168752821515830287019450613ae0565b8960005260208060002060005b85811015613ad75781548a820152908401908201613abe565b50505082870194505b507f2f00000000000000000000000000000000000000000000000000000000000000845287519250613b188382860160208b01613066565b92820192613b478185017f2f000000000000000000000000000000000000000000000000000000000000009052565b505050613b576002820185613a5a565b7f2e6a736f6e00000000000000000000000000000000000000000000000000000081526005019695505050505050565b60007fffffffffffffffffffffffffffffffffffffffffffffffffffffffffffffffff8203613bb857613bb8613876565b5060010190565b7f4e487b7100000000000000000000000000000000000000000000000000000000600052603260045260246000fd5b81835260007f07ffffffffffffffffffffffffffffffffffffffffffffffffffffffffffffff831115613c2057600080fd5b8260051b80836020870137939093016020019392505050565b604081526000613c4d604083018688613bee565b8281036020840152613c60818587613bee565b979650505050505050565b818352818160208501375060006020828401015260006020601f19601f840116840101905092915050565b60006001600160a01b03808b168352808a1660208401525060a06040830152613cc360a08301888a613bee565b8281036060840152613cd6818789613bee565b90508281036080840152613ceb818587613c6b565b9b9a5050505050505050505050565b600060208284031215613d0c57600080fd5b81516117e281612ebe565b7f4e487b7100000000000000000000000000000000000000000000000000000000600052601260045260246000fd5b600082613d5557613d55613d17565b500690565b60006001600160a01b03808916835280881660208401525085604083015284606083015260a06080830152613d9360a083018486613c6b565b98975050505050505050565b600082613dae57613dae613d17565b500490565b60006001600160a01b03808816835280871660208401525084604083015283606083015260a06080830152613c6060a083018461308a565b604081526000613dfe6040830185613396565b82810360208401526135028185613396565b60006001600160a01b03808816835280871660208401525060a06040830152613e3c60a0830186613396565b8281036060840152613e4e8186613396565b90508281036080840152613d93818561308a56fea26469706673582212204c0a579c2130fe822a84bf89a62644ffa757a1854ce1e25bd2d533331fbeb20c64736f6c6343000810003368747470733a2f2f6d61747269782d6d657461646174612d7365727665722e7a6565742d6d61747269782e7a6565742e617070",
    "linkReferences": {}
  },
  "methodIdentifiers": {
    "CREATOR_TOKEN_ID()": "7f13aadc",
    "INVALID_STARTING_ID()": "30594879",
    "LOOTBOX_STARTING_ID()": "6cad184b",
    "PREMIUM_PASS_STARTING_ID()": "78b00d38",
    "REDEEMABLE_STARTING_ID()": "00021454",
    "SPECIAL_STARTING_ID()": "52f43e9b",
    "addReward(uint256,uint256,bool,uint256,uint256)": "6d656a2f",
    "balanceOf(address,uint256)": "00fdd58e",
    "balanceOfBatch(address[],uint256[])": "4e1273f4",
    "burn(address,uint256,uint256)": "f5298aca",
    "calculateRandom(uint256)": "950aca56",
    "checkType(uint256)": "c660005b",
    "claimReward(uint256,uint256,bool)": "ca638cb8",
    "claimRewardAtomic(uint256,uint256,bool)": "628e6cdd",
    "crafting()": "91f1cf05",
    "creatorId()": "e58324ea",
    "delegate(address,uint256)": "026e402b",
    "delegatedBy(address,address)": "22ab96b7",
    "delegatedTotal(address)": "b8b96a68",
    "getLootboxOptionByIdx(uint256,uint256)": "77cffeb8",
    "getLootboxOptionsLength(uint256)": "cde23474",
    "getMaxLevel(uint256)": "94f568dd",
    "giveXp(uint256,uint256,address)": "5a50b3e5",
    "isApprovedForAll(address,address)": "e985e9c5",
    "isRewardClaimed(address,uint256,uint256,bool)": "c089da25",
    "isTrustedForwarder(address)": "572b6c05",
    "isUserPremium(address,uint256)": "d2409af0",
    "level(address,uint256)": "909c86e3",
    "lootboxId()": "a76bfa65",
    "mint(address,uint256,uint256)": "156e29f6",
    "newLootbox((uint256[2],uint256[],uint256[])[])": "84a21a40",
    "newSeason((uint256,uint256,uint256,uint256,uint256)[])": "2a378afa",
    "openLootbox(uint256)": "7ff48190",
    "owner()": "8da5cb5b",
    "safeBatchTransferFrom(address,address,uint256[],uint256[],bytes)": "2eb2c2d6",
    "safeTransferFrom(address,address,uint256,uint256,bytes)": "f242432a",
    "seasonId()": "04922960",
    "seasonInfo(uint256,uint256)": "3f6bf326",
    "setApprovalForAll(address,bool)": "a22cb465",
    "setCrafting(address)": "4fb9d2cb",
    "setOwner(address)": "13af4035",
    "setURI(string)": "02fe5305",
    "setXp(uint256,uint256,uint256)": "978f6d6c",
    "supportsInterface(bytes4)": "01ffc9a7",
    "tokenURI()": "3c130d90",
    "undelegate(address,uint256)": "4d99dd16",
    "uri(uint256)": "0e89341c",
    "userInfo(address,uint256)": "21ce919d"
  },
  "id": 15
}